{
  "contractName": "BallotBox",
  "abi": [
    {
      "inputs": [
        {
          "internalType": "bytes",
          "name": "_publicKey",
          "type": "bytes"
        },
        {
          "internalType": "bytes",
          "name": "_generator",
          "type": "bytes"
        },
        {
          "internalType": "bytes",
          "name": "_prime",
          "type": "bytes"
        }
      ],
      "payable": false,
      "stateMutability": "nonpayable",
      "type": "constructor"
    },
    {
      "anonymous": false,
      "inputs": [
        {
          "indexed": false,
          "internalType": "address",
          "name": "voter",
          "type": "address"
        }
      ],
      "name": "AllowedVoterAdded",
      "type": "event"
    },
    {
      "anonymous": false,
      "inputs": [
        {
          "indexed": false,
          "internalType": "address",
          "name": "voter",
          "type": "address"
        },
        {
          "indexed": false,
          "internalType": "string",
          "name": "A",
          "type": "string"
        },
        {
          "indexed": false,
          "internalType": "string",
          "name": "B",
          "type": "string"
        }
      ],
      "name": "BallotAdded",
      "type": "event"
    },
    {
      "anonymous": false,
      "inputs": [
        {
          "indexed": true,
          "internalType": "address",
          "name": "previousOwner",
          "type": "address"
        },
        {
          "indexed": true,
          "internalType": "address",
          "name": "newOwner",
          "type": "address"
        }
      ],
      "name": "OwnershipTransferred",
      "type": "event"
    },
    {
      "anonymous": false,
      "inputs": [
        {
          "indexed": false,
          "internalType": "bytes",
          "name": "g",
          "type": "bytes"
        },
        {
          "indexed": false,
          "internalType": "bytes",
          "name": "p",
          "type": "bytes"
        },
        {
          "indexed": false,
          "internalType": "bytes",
          "name": "x",
          "type": "bytes"
        },
        {
          "indexed": false,
          "internalType": "bytes",
          "name": "y",
          "type": "bytes"
        }
      ],
      "name": "encryptionSet",
      "type": "event"
    },
    {
      "anonymous": false,
      "inputs": [
        {
          "indexed": false,
          "internalType": "uint256",
          "name": "index",
          "type": "uint256"
        },
        {
          "indexed": false,
          "internalType": "string",
          "name": "value",
          "type": "string"
        }
      ],
      "name": "valueDecrypted",
      "type": "event"
    },
    {
      "constant": true,
      "inputs": [
        {
          "internalType": "address",
          "name": "",
          "type": "address"
        }
      ],
      "name": "alreadyVoted",
      "outputs": [
        {
          "internalType": "bool",
          "name": "",
          "type": "bool"
        }
      ],
      "payable": false,
      "stateMutability": "view",
      "type": "function"
    },
    {
      "constant": true,
      "inputs": [],
      "name": "ballotCount",
      "outputs": [
        {
          "internalType": "int256",
          "name": "",
          "type": "int256"
        }
      ],
      "payable": false,
      "stateMutability": "view",
      "type": "function"
    },
    {
      "constant": true,
      "inputs": [],
      "name": "currentOwner",
      "outputs": [
        {
          "internalType": "address",
          "name": "",
          "type": "address"
        }
      ],
      "payable": false,
      "stateMutability": "view",
      "type": "function"
    },
    {
      "constant": true,
      "inputs": [],
      "name": "generator",
      "outputs": [
        {
          "internalType": "bytes",
          "name": "",
          "type": "bytes"
        }
      ],
      "payable": false,
      "stateMutability": "view",
      "type": "function"
    },
    {
      "constant": true,
      "inputs": [],
      "name": "prime",
      "outputs": [
        {
          "internalType": "bytes",
          "name": "",
          "type": "bytes"
        }
      ],
      "payable": false,
      "stateMutability": "view",
      "type": "function"
    },
    {
      "constant": true,
      "inputs": [],
      "name": "privateKey",
      "outputs": [
        {
          "internalType": "bytes",
          "name": "",
          "type": "bytes"
        }
      ],
      "payable": false,
      "stateMutability": "view",
      "type": "function"
    },
    {
      "constant": true,
      "inputs": [],
      "name": "publicKey",
      "outputs": [
        {
          "internalType": "bytes",
          "name": "",
          "type": "bytes"
        }
      ],
      "payable": false,
      "stateMutability": "view",
      "type": "function"
    },
    {
      "constant": true,
      "inputs": [
        {
          "internalType": "address",
          "name": "",
          "type": "address"
        }
      ],
      "name": "votersList",
      "outputs": [
        {
          "internalType": "bool",
          "name": "",
          "type": "bool"
        }
      ],
      "payable": false,
      "stateMutability": "view",
      "type": "function"
    },
    {
      "constant": true,
      "inputs": [],
      "name": "isOwner",
      "outputs": [
        {
          "internalType": "bool",
          "name": "",
          "type": "bool"
        }
      ],
      "payable": false,
      "stateMutability": "view",
      "type": "function"
    },
    {
      "constant": false,
      "inputs": [
        {
          "internalType": "address",
          "name": "newOwner",
          "type": "address"
        }
      ],
      "name": "transferOwnership",
      "outputs": [],
      "payable": false,
      "stateMutability": "nonpayable",
      "type": "function"
    },
    {
      "constant": true,
      "inputs": [
        {
          "internalType": "uint256",
          "name": "index",
          "type": "uint256"
        }
      ],
      "name": "getBallotByIndex",
      "outputs": [
        {
          "internalType": "string",
          "name": "A",
          "type": "string"
        },
        {
          "internalType": "string",
          "name": "B",
          "type": "string"
        },
        {
          "internalType": "address",
          "name": "voter",
          "type": "address"
        }
      ],
      "payable": false,
      "stateMutability": "view",
      "type": "function"
    },
    {
      "constant": false,
      "inputs": [
        {
          "internalType": "bytes",
          "name": "g",
          "type": "bytes"
        },
        {
          "internalType": "bytes",
          "name": "p",
          "type": "bytes"
        },
        {
          "internalType": "bytes",
          "name": "x",
          "type": "bytes"
        },
        {
          "internalType": "bytes",
          "name": "y",
          "type": "bytes"
        }
      ],
      "name": "setInfo",
      "outputs": [],
      "payable": false,
      "stateMutability": "nonpayable",
      "type": "function"
    },
    {
      "constant": true,
      "inputs": [],
      "name": "getInfo",
      "outputs": [
        {
          "internalType": "bytes",
          "name": "g",
          "type": "bytes"
        },
        {
          "internalType": "bytes",
          "name": "p",
          "type": "bytes"
        },
        {
          "internalType": "bytes",
          "name": "x",
          "type": "bytes"
        },
        {
          "internalType": "bytes",
          "name": "y",
          "type": "bytes"
        }
      ],
      "payable": false,
      "stateMutability": "view",
      "type": "function"
    },
    {
      "constant": false,
      "inputs": [
        {
          "internalType": "address",
          "name": "voter",
          "type": "address"
        }
      ],
      "name": "addVoterToVoterList",
      "outputs": [],
      "payable": false,
      "stateMutability": "nonpayable",
      "type": "function"
    },
    {
      "constant": false,
      "inputs": [
        {
          "internalType": "string",
          "name": "_A",
          "type": "string"
        },
        {
          "internalType": "string",
          "name": "_B",
          "type": "string"
        }
      ],
      "name": "vote",
      "outputs": [],
      "payable": false,
      "stateMutability": "nonpayable",
      "type": "function"
    },
    {
      "constant": false,
      "inputs": [
        {
          "internalType": "uint256",
          "name": "_index",
          "type": "uint256"
        },
        {
          "internalType": "string",
          "name": "_value",
          "type": "string"
        }
      ],
      "name": "Decrypt",
      "outputs": [],
      "payable": false,
      "stateMutability": "nonpayable",
      "type": "function"
    }
  ],
  "bytecode": "0x60806040526040518060400160405280600181526020017f3000000000000000000000000000000000000000000000000000000000000000815250600590805190602001906200005192919062000484565b5060006008553480156200006457600080fd5b506040516200284f3803806200284f833981810160405260608110156200008a57600080fd5b8101908080516040519392919084640100000000821115620000ab57600080fd5b83820191506020820185811115620000c257600080fd5b8251866001820283011164010000000082111715620000e057600080fd5b8083526020830192505050908051906020019080838360005b8381101562000116578082015181840152602081019050620000f9565b50505050905090810190601f168015620001445780820380516001836020036101000a031916815260200191505b50604052602001805160405193929190846401000000008211156200016857600080fd5b838201915060208201858111156200017f57600080fd5b82518660018202830111640100000000821117156200019d57600080fd5b8083526020830192505050908051906020019080838360005b83811015620001d3578082015181840152602081019050620001b6565b50505050905090810190601f168015620002015780820380516001836020036101000a031916815260200191505b50604052602001805160405193929190846401000000008211156200022557600080fd5b838201915060208201858111156200023c57600080fd5b82518660018202830111640100000000821117156200025a57600080fd5b8083526020830192505050908051906020019080838360005b838110156200029057808201518184015260208101905062000273565b50505050905090810190601f168015620002be5780820380516001836020036101000a031916815260200191505b506040525050506000835114156200033e576040517f08c379a000000000000000000000000000000000000000000000000000000000815260040180806020018281038252601c8152602001807f4d75737420706173732070726f706572205075626c6963204b6579210000000081525060200191505060405180910390fd5b336000806101000a81548173ffffffffffffffffffffffffffffffffffffffff021916908373ffffffffffffffffffffffffffffffffffffffff1602179055506000809054906101000a900473ffffffffffffffffffffffffffffffffffffffff1673ffffffffffffffffffffffffffffffffffffffff16600073ffffffffffffffffffffffffffffffffffffffff167f8be0079c531659141344cd1fd0a4f28419497f9722a3daafe3b4186f6b6457e060405160405180910390a36000600960006101000a81548160ff0219169083151502179055506000600960016101000a81548160ff0219169083151502179055508260049080519060200190620004489291906200050b565b508160069080519060200190620004619291906200050b565b5080600790805190602001906200047a9291906200050b565b50505050620005ba565b828054600181600116156101000203166002900490600052602060002090601f016020900481019282601f10620004c757805160ff1916838001178555620004f8565b82800160010185558215620004f8579182015b82811115620004f7578251825591602001919060010190620004da565b5b50905062000507919062000592565b5090565b828054600181600116156101000203166002900490600052602060002090601f016020900481019282601f106200054e57805160ff19168380011785556200057f565b828001600101855582156200057f579182015b828111156200057e57825182559160200191906001019062000561565b5b5090506200058e919062000592565b5090565b620005b791905b80821115620005b357600081600090555060010162000599565b5090565b90565b61228580620005ca6000396000f3fe608060405234801561001057600080fd5b50600436106101005760003560e01c80638f32d59b11610097578063c8b3d5ac11610066578063c8b3d5ac146107d6578063d0c38aa61461091c578063e8d5940d1461099f578063f2fde38b14610af157610100565b80638f32d59b146106c9578063b387ef92146106eb578063c003003214610735578063c7ee005e1461075357610100565b80635a9b0b89116100d35780635a9b0b89146103b857806363ffab311461057f5780637afa1eed146106025780638634ca2e1461068557610100565b806306d2ad40146101055780631de3121414610161578063443019fe146102d957806349da5a0f14610335575b600080fd5b6101476004803603602081101561011b57600080fd5b81019080803573ffffffffffffffffffffffffffffffffffffffff169060200190929190505050610b35565b604051808215151515815260200191505060405180910390f35b6102d76004803603608081101561017757600080fd5b810190808035906020019064010000000081111561019457600080fd5b8201836020820111156101a657600080fd5b803590602001918460018302840111640100000000831117156101c857600080fd5b9091929391929390803590602001906401000000008111156101e957600080fd5b8201836020820111156101fb57600080fd5b8035906020019184600183028401116401000000008311171561021d57600080fd5b90919293919293908035906020019064010000000081111561023e57600080fd5b82018360208201111561025057600080fd5b8035906020019184600183028401116401000000008311171561027257600080fd5b90919293919293908035906020019064010000000081111561029357600080fd5b8201836020820111156102a557600080fd5b803590602001918460018302840111640100000000831117156102c757600080fd5b9091929391929390505050610b55565b005b61031b600480360360208110156102ef57600080fd5b81019080803573ffffffffffffffffffffffffffffffffffffffff169060200190929190505050610d20565b604051808215151515815260200191505060405180910390f35b61033d610d40565b6040518080602001828103825283818151815260200191508051906020019080838360005b8381101561037d578082015181840152602081019050610362565b50505050905090810190601f1680156103aa5780820380516001836020036101000a031916815260200191505b509250505060405180910390f35b6103c0610dde565b6040518080602001806020018060200180602001858103855289818151815260200191508051906020019080838360005b8381101561040c5780820151818401526020810190506103f1565b50505050905090810190601f1680156104395780820380516001836020036101000a031916815260200191505b50858103845288818151815260200191508051906020019080838360005b83811015610472578082015181840152602081019050610457565b50505050905090810190601f16801561049f5780820380516001836020036101000a031916815260200191505b50858103835287818151815260200191508051906020019080838360005b838110156104d85780820151818401526020810190506104bd565b50505050905090810190601f1680156105055780820380516001836020036101000a031916815260200191505b50858103825286818151815260200191508051906020019080838360005b8381101561053e578082015181840152602081019050610523565b50505050905090810190601f16801561056b5780820380516001836020036101000a031916815260200191505b509850505050505050505060405180910390f35b61058761106a565b6040518080602001828103825283818151815260200191508051906020019080838360005b838110156105c75780820151818401526020810190506105ac565b50505050905090810190601f1680156105f45780820380516001836020036101000a031916815260200191505b509250505060405180910390f35b61060a611108565b6040518080602001828103825283818151815260200191508051906020019080838360005b8381101561064a57808201518184015260208101905061062f565b50505050905090810190601f1680156106775780820380516001836020036101000a031916815260200191505b509250505060405180910390f35b6106c76004803603602081101561069b57600080fd5b81019080803573ffffffffffffffffffffffffffffffffffffffff1690602001909291905050506111a6565b005b6106d161147f565b604051808215151515815260200191505060405180910390f35b6106f36114d6565b604051808273ffffffffffffffffffffffffffffffffffffffff1673ffffffffffffffffffffffffffffffffffffffff16815260200191505060405180910390f35b61073d6114fb565b6040518082815260200191505060405180910390f35b61075b611501565b6040518080602001828103825283818151815260200191508051906020019080838360005b8381101561079b578082015181840152602081019050610780565b50505050905090810190601f1680156107c85780820380516001836020036101000a031916815260200191505b509250505060405180910390f35b610802600480360360208110156107ec57600080fd5b810190808035906020019092919050505061159f565b6040518080602001806020018473ffffffffffffffffffffffffffffffffffffffff1673ffffffffffffffffffffffffffffffffffffffff168152602001838103835286818151815260200191508051906020019080838360005b8381101561087857808201518184015260208101905061085d565b50505050905090810190601f1680156108a55780820380516001836020036101000a031916815260200191505b50838103825285818151815260200191508051906020019080838360005b838110156108de5780820151818401526020810190506108c3565b50505050905090810190601f16801561090b5780820380516001836020036101000a031916815260200191505b509550505050505060405180910390f35b61099d6004803603604081101561093257600080fd5b81019080803590602001909291908035906020019064010000000081111561095957600080fd5b82018360208201111561096b57600080fd5b8035906020019184600183028401116401000000008311171561098d57600080fd5b90919293919293905050506118ad565b005b610aef600480360360408110156109b557600080fd5b81019080803590602001906401000000008111156109d257600080fd5b8201836020820111156109e457600080fd5b80359060200191846001830284011164010000000083111715610a0657600080fd5b91908080601f016020809104026020016040519081016040528093929190818152602001838380828437600081840152601f19601f82011690508083019250505050505050919291929080359060200190640100000000811115610a6957600080fd5b820183602082011115610a7b57600080fd5b80359060200191846001830284011164010000000083111715610a9d57600080fd5b91908080601f016020809104026020016040519081016040528093929190818152602001838380828437600081840152601f19601f8201169050808301925050505050505091929192905050506119c5565b005b610b3360048036036020811015610b0757600080fd5b81019080803573ffffffffffffffffffffffffffffffffffffffff169060200190929190505050611e92565b005b60036020528060005260406000206000915054906101000a900460ff1681565b610b5d61147f565b610bcf576040517f08c379a00000000000000000000000000000000000000000000000000000000081526004018080602001828103825260178152602001807f4f6e6c79204f776e65722063616e20646f20746869732100000000000000000081525060200191505060405180910390fd5b878760069190610be092919061206d565b50858560079190610bf292919061206d565b50838360059190610c0492919061206d565b50818160049190610c1692919061206d565b507fec023754730663bc04dfc5ad1dccd1b07d792bd057607e2fb39211bcbb0ed4288888888888888888604051808060200180602001806020018060200185810385528d8d82818152602001925080828437600081840152601f19601f82011690508083019250505085810384528b8b82818152602001925080828437600081840152601f19601f8201169050808301925050508581038352898982818152602001925080828437600081840152601f19601f8201169050808301925050508581038252878782818152602001925080828437600081840152601f19601f8201169050808301925050509c5050505050505050505050505060405180910390a15050505050505050565b60026020528060005260406000206000915054906101000a900460ff1681565b60058054600181600116156101000203166002900480601f016020809104026020016040519081016040528092919081815260200182805460018160011615610100020316600290048015610dd65780601f10610dab57610100808354040283529160200191610dd6565b820191906000526020600020905b815481529060010190602001808311610db957829003601f168201915b505050505081565b6060806060806006600760056004838054600181600116156101000203166002900480601f016020809104026020016040519081016040528092919081815260200182805460018160011615610100020316600290048015610e815780601f10610e5657610100808354040283529160200191610e81565b820191906000526020600020905b815481529060010190602001808311610e6457829003601f168201915b50505050509350828054600181600116156101000203166002900480601f016020809104026020016040519081016040528092919081815260200182805460018160011615610100020316600290048015610f1d5780601f10610ef257610100808354040283529160200191610f1d565b820191906000526020600020905b815481529060010190602001808311610f0057829003601f168201915b50505050509250818054600181600116156101000203166002900480601f016020809104026020016040519081016040528092919081815260200182805460018160011615610100020316600290048015610fb95780601f10610f8e57610100808354040283529160200191610fb9565b820191906000526020600020905b815481529060010190602001808311610f9c57829003601f168201915b50505050509150808054600181600116156101000203166002900480601f0160208091040260200160405190810160405280929190818152602001828054600181600116156101000203166002900480156110555780601f1061102a57610100808354040283529160200191611055565b820191906000526020600020905b81548152906001019060200180831161103857829003601f168201915b50505050509050935093509350935090919293565b60048054600181600116156101000203166002900480601f0160208091040260200160405190810160405280929190818152602001828054600181600116156101000203166002900480156111005780601f106110d557610100808354040283529160200191611100565b820191906000526020600020905b8154815290600101906020018083116110e357829003601f168201915b505050505081565b60068054600181600116156101000203166002900480601f01602080910402602001604051908101604052809291908181526020018280546001816001161561010002031660029004801561119e5780601f106111735761010080835404028352916020019161119e565b820191906000526020600020905b81548152906001019060200180831161118157829003601f168201915b505050505081565b6111ae61147f565b611220576040517f08c379a00000000000000000000000000000000000000000000000000000000081526004018080602001828103825260178152602001807f4f6e6c79204f776e65722063616e20646f20746869732100000000000000000081525060200191505060405180910390fd5b60001515600260008373ffffffffffffffffffffffffffffffffffffffff1673ffffffffffffffffffffffffffffffffffffffff16815260200190815260200160002060009054906101000a900460ff161515146112e6576040517f08c379a00000000000000000000000000000000000000000000000000000000081526004018080602001828103825260138152602001807f766f74657220616c72656164792061646465640000000000000000000000000081525060200191505060405180910390fd5b600960009054906101000a900460ff1615611369576040517f08c379a000000000000000000000000000000000000000000000000000000000815260040180806020018281038252601d8152602001807f726567697374727920706572696f6420616c726561647920656e64656400000081525060200191505060405180910390fd5b6001600260008373ffffffffffffffffffffffffffffffffffffffff1673ffffffffffffffffffffffffffffffffffffffff16815260200190815260200160002060006101000a81548160ff0219169083151502179055506000600360008373ffffffffffffffffffffffffffffffffffffffff1673ffffffffffffffffffffffffffffffffffffffff16815260200190815260200160002060006101000a81548160ff0219169083151502179055507f46c06e25e47f79bbb4bc88c99e0c45369844d4a6bc8d28009bbe448eb0270ace81604051808273ffffffffffffffffffffffffffffffffffffffff1673ffffffffffffffffffffffffffffffffffffffff16815260200191505060405180910390a150565b60008060009054906101000a900473ffffffffffffffffffffffffffffffffffffffff1673ffffffffffffffffffffffffffffffffffffffff163373ffffffffffffffffffffffffffffffffffffffff1614905090565b6000809054906101000a900473ffffffffffffffffffffffffffffffffffffffff1681565b60085481565b60078054600181600116156101000203166002900480601f0160208091040260200160405190810160405280929190818152602001828054600181600116156101000203166002900480156115975780601f1061156c57610100808354040283529160200191611597565b820191906000526020600020905b81548152906001019060200180831161157a57829003601f168201915b505050505081565b6060806000600180549050841061161e576040517f08c379a00000000000000000000000000000000000000000000000000000000081526004018080602001828103825260168152602001807f4d75737420706173732076616c696420696e646578210000000000000000000081525060200191505060405180910390fd5b6116266120ed565b6001858154811061163357fe5b90600052602060002090600402016040518060800160405290816000820160009054906101000a900473ffffffffffffffffffffffffffffffffffffffff1673ffffffffffffffffffffffffffffffffffffffff1673ffffffffffffffffffffffffffffffffffffffff168152602001600182018054600181600116156101000203166002900480601f01602080910402602001604051908101604052809291908181526020018280546001816001161561010002031660029004801561173b5780601f106117105761010080835404028352916020019161173b565b820191906000526020600020905b81548152906001019060200180831161171e57829003601f168201915b50505050508152602001600282018054600181600116156101000203166002900480601f0160208091040260200160405190810160405280929190818152602001828054600181600116156101000203166002900480156117dd5780601f106117b2576101008083540402835291602001916117dd565b820191906000526020600020905b8154815290600101906020018083116117c057829003601f168201915b50505050508152602001600382018054600181600116156101000203166002900480601f01602080910402602001604051908101604052809291908181526020018280546001816001161561010002031660029004801561187f5780601f106118545761010080835404028352916020019161187f565b820191906000526020600020905b81548152906001019060200180831161186257829003601f168201915b5050505050815250509050806020015181604001518260000151829250819150935093509350509193909250565b6118b561147f565b611927576040517f08c379a00000000000000000000000000000000000000000000000000000000081526004018080602001828103825260178152602001807f4f6e6c79204f776e65722063616e20646f20746869732100000000000000000081525060200191505060405180910390fd5b81816001858154811061193657fe5b9060005260206000209060040201600301919061195492919061212b565b507f5b777187d10f86b49e4ce9058d45d423be5beaff49d95d0695397b84adbc172783838360405180848152602001806020018281038252848482818152602001925080828437600081840152601f19601f82011690508083019250505094505050505060405180910390a1505050565b600260003373ffffffffffffffffffffffffffffffffffffffff1673ffffffffffffffffffffffffffffffffffffffff16815260200190815260200160002060009054906101000a900460ff16611a84576040517f08c379a00000000000000000000000000000000000000000000000000000000081526004018080602001828103825260178152602001807f796f757265206e6f7420612076616c696420766f74657200000000000000000081525060200191505060405180910390fd5b600360003373ffffffffffffffffffffffffffffffffffffffff1673ffffffffffffffffffffffffffffffffffffffff16815260200190815260200160002060009054906101000a900460ff1615611b44576040517f08c379a00000000000000000000000000000000000000000000000000000000081526004018080602001828103825260118152602001807f796f7520616c726561647920766f74656400000000000000000000000000000081525060200191505060405180910390fd5b600960019054906101000a900460ff1615611bc7576040517f08c379a000000000000000000000000000000000000000000000000000000000815260040180806020018281038252601b8152602001807f766f74696e6720706572696f6420616c726561647920656e646564000000000081525060200191505060405180910390fd5b6001600360003373ffffffffffffffffffffffffffffffffffffffff1673ffffffffffffffffffffffffffffffffffffffff16815260200190815260200160002060006101000a81548160ff021916908315150217905550611c276120ed565b60405180608001604052803373ffffffffffffffffffffffffffffffffffffffff1681526020018481526020018381526020016040518060200160405280600081525081525090506001819080600181540180825580915050906001820390600052602060002090600402016000909192909190915060008201518160000160006101000a81548173ffffffffffffffffffffffffffffffffffffffff021916908373ffffffffffffffffffffffffffffffffffffffff1602179055506020820151816001019080519060200190611d009291906121ab565b506040820151816002019080519060200190611d1d9291906121ab565b506060820151816003019080519060200190611d3a9291906121ab565b505050506008600081548092919060010191905055507ff3af86b91a9ed622437437bfad97975edd009f8f04d83638551daa7d190a2538338484604051808473ffffffffffffffffffffffffffffffffffffffff1673ffffffffffffffffffffffffffffffffffffffff1681526020018060200180602001838103835285818151815260200191508051906020019080838360005b83811015611dea578082015181840152602081019050611dcf565b50505050905090810190601f168015611e175780820380516001836020036101000a031916815260200191505b50838103825284818151815260200191508051906020019080838360005b83811015611e50578082015181840152602081019050611e35565b50505050905090810190601f168015611e7d5780820380516001836020036101000a031916815260200191505b509550505050505060405180910390a1505050565b611e9a61147f565b611f0c576040517f08c379a00000000000000000000000000000000000000000000000000000000081526004018080602001828103825260178152602001807f4f6e6c79204f776e65722063616e20646f20746869732100000000000000000081525060200191505060405180910390fd5b600073ffffffffffffffffffffffffffffffffffffffff168173ffffffffffffffffffffffffffffffffffffffff161415611faf576040517f08c379a00000000000000000000000000000000000000000000000000000000081526004018080602001828103825260198152602001807f43616e206e6f74207472616e7366657220746f205a65726f210000000000000081525060200191505060405180910390fd5b8073ffffffffffffffffffffffffffffffffffffffff166000809054906101000a900473ffffffffffffffffffffffffffffffffffffffff1673ffffffffffffffffffffffffffffffffffffffff167f8be0079c531659141344cd1fd0a4f28419497f9722a3daafe3b4186f6b6457e060405160405180910390a3806000806101000a81548173ffffffffffffffffffffffffffffffffffffffff021916908373ffffffffffffffffffffffffffffffffffffffff16021790555050565b828054600181600116156101000203166002900490600052602060002090601f016020900481019282601f106120ae57803560ff19168380011785556120dc565b828001600101855582156120dc579182015b828111156120db5782358255916020019190600101906120c0565b5b5090506120e9919061222b565b5090565b6040518060800160405280600073ffffffffffffffffffffffffffffffffffffffff1681526020016060815260200160608152602001606081525090565b828054600181600116156101000203166002900490600052602060002090601f016020900481019282601f1061216c57803560ff191683800117855561219a565b8280016001018555821561219a579182015b8281111561219957823582559160200191906001019061217e565b5b5090506121a7919061222b565b5090565b828054600181600116156101000203166002900490600052602060002090601f016020900481019282601f106121ec57805160ff191683800117855561221a565b8280016001018555821561221a579182015b828111156122195782518255916020019190600101906121fe565b5b509050612227919061222b565b5090565b61224d91905b80821115612249576000816000905550600101612231565b5090565b9056fea265627a7a723158207915ac2809f35d3fd5995b17175a11065e7e07fe14dedab55e872b059574318e64736f6c63430005100032",
  "source": "pragma solidity >=0.5.0 <0.8.0;\r\n\r\ncontract BallotBox {\r\n     struct ballot {\r\n        address voter;\r\n        string A;\r\n        string B;  \r\n        string decryptValue;\r\n    }\r\n    address public currentOwner;\r\n    function isOwner() public view returns (bool) {\r\n        return msg.sender == currentOwner;\r\n    }\r\n    modifier onlyOwner() {\r\n        require(isOwner(), \"Only Owner can do this!\");\r\n        _;\r\n    }\r\n\r\n    function transferOwnership(address newOwner) public onlyOwner {\r\n        require(newOwner != address(0), \"Can not transfer to Zero!\");\r\n        emit OwnershipTransferred(currentOwner, newOwner);\r\n        currentOwner = newOwner;\r\n    }\r\n    \r\n    ballot[] private ballotList;\r\n    \r\n    event OwnershipTransferred(address indexed previousOwner, address indexed newOwner);\r\n    event encryptionSet(bytes g,bytes p,bytes x,bytes y);\r\n    event AllowedVoterAdded(address voter);\r\n    event BallotAdded(address voter,string A,string B);\r\n    event valueDecrypted(uint index,string value );\r\n\r\n    mapping(address=>bool) public votersList;\r\n    mapping(address=>bool) public alreadyVoted;\r\n    bytes public publicKey;\r\n    bytes public privateKey=\"0\";\r\n    bytes public generator;\r\n    bytes public prime;\r\n    \r\n    int public ballotCount=0;\r\n    bool registryPeriodEnd;\r\n    bool votePeriodEnd;\r\n    \r\n    constructor (bytes memory _publicKey,bytes memory _generator,bytes memory _prime) public {\r\n        require(\r\n            _publicKey.length != 0,\r\n            \"Must pass proper Public Key!\");\r\n        currentOwner = msg.sender;\r\n        emit OwnershipTransferred(address(0), currentOwner);\r\n        registryPeriodEnd=false;\r\n        votePeriodEnd=false;\r\n        publicKey=_publicKey;\r\n        generator=_generator;\r\n        prime=_prime;\r\n        \r\n    }\r\n    function getBallotByIndex(uint index) view public returns(string memory A,string memory B,address voter)  {\r\n        require(index<ballotList.length,\"Must pass valid index!\");\r\n        ballot memory b = ballotList[index];\r\n        return(b.A,b.B,b.voter);\r\n    }\r\n    function setInfo( bytes calldata  g,bytes calldata  p,bytes calldata  x,bytes calldata  y) external onlyOwner {\r\n        generator=g;\r\n        prime=p;\r\n        privateKey=x;\r\n        publicKey=y;\r\n        emit encryptionSet(g, p, x, y);\r\n    }\r\n    function getInfo()view public returns(bytes memory g ,bytes memory p,bytes memory x, bytes memory y){\r\n        return(generator,prime,privateKey,publicKey);\r\n    }\r\n    \r\n    function addVoterToVoterList(address voter) external onlyOwner {\r\n        require(votersList[voter]==false,\"voter already added\");\r\n        require(!registryPeriodEnd,\"registry period already ended\");\r\n        votersList[voter]=true;\r\n        alreadyVoted[voter]=false;\r\n        emit AllowedVoterAdded(voter);\r\n    }\r\n\r\n    function vote(string memory _A,string memory _B) public {\r\n        require(votersList[msg.sender],\"youre not a valid voter\");\r\n        require(!alreadyVoted[msg.sender],\"you already voted\");\r\n        require(!votePeriodEnd,\"voting period already ended\");\r\n        alreadyVoted[msg.sender]=true;\r\n        ballot memory balot=ballot(msg.sender,_A,_B,\"\");\r\n        ballotList.push(balot);\r\n        ballotCount++;\r\n        emit BallotAdded(msg.sender,_A,_B);\r\n\r\n    }\r\n    function Decrypt(uint _index,string calldata _value) external onlyOwner {\r\n        ballotList[_index].decryptValue=_value;\r\n        emit valueDecrypted(_index,_value);\r\n    }\r\n}",
  "sourcePath": "C:/Users/Pc/Desktop/PROJETFF/Drizzle-tutorial-with-React-Hooks-master/contracts/BallotBox.sol",
  "compiler": {
    "name": "solc",
    "version": "0.5.16+commit.9c3226ce.Emscripten.clang"
  },
  "schemaVersion": "3.4.0",
  "updatedAt": "2021-06-24T13:56:44.711Z",
  "networkType": "ethereum",
  "devdoc": {
    "methods": {}
  },
  "userdoc": {
    "methods": {}
  }
}