{
  "contractName": "BallotBox",
  "abi": [
    {
      "inputs": [
        {
          "internalType": "bytes",
          "name": "_publicKey",
          "type": "bytes"
        },
        {
          "internalType": "bytes",
          "name": "_generator",
          "type": "bytes"
        },
        {
          "internalType": "bytes",
          "name": "_prime",
          "type": "bytes"
        }
      ],
      "payable": false,
      "stateMutability": "nonpayable",
      "type": "constructor"
    },
    {
      "anonymous": false,
      "inputs": [
        {
          "indexed": false,
          "internalType": "address",
          "name": "voter",
          "type": "address"
        }
      ],
      "name": "AllowedVoterAdded",
      "type": "event"
    },
    {
      "anonymous": false,
      "inputs": [
        {
          "indexed": false,
          "internalType": "address",
          "name": "voter",
          "type": "address"
        },
        {
          "indexed": false,
          "internalType": "string",
          "name": "A",
          "type": "string"
        },
        {
          "indexed": false,
          "internalType": "string",
          "name": "B",
          "type": "string"
        }
      ],
      "name": "BallotAdded",
      "type": "event"
    },
    {
      "anonymous": false,
      "inputs": [
        {
          "indexed": true,
          "internalType": "address",
          "name": "previousOwner",
          "type": "address"
        },
        {
          "indexed": true,
          "internalType": "address",
          "name": "newOwner",
          "type": "address"
        }
      ],
      "name": "OwnershipTransferred",
      "type": "event"
    },
    {
      "anonymous": false,
      "inputs": [
        {
          "indexed": false,
          "internalType": "bytes",
          "name": "g",
          "type": "bytes"
        },
        {
          "indexed": false,
          "internalType": "bytes",
          "name": "p",
          "type": "bytes"
        },
        {
          "indexed": false,
          "internalType": "bytes",
          "name": "x",
          "type": "bytes"
        },
        {
          "indexed": false,
          "internalType": "bytes",
          "name": "y",
          "type": "bytes"
        }
      ],
      "name": "encryptionSet",
      "type": "event"
    },
    {
      "anonymous": false,
      "inputs": [
        {
          "indexed": false,
          "internalType": "uint256",
          "name": "index",
          "type": "uint256"
        },
        {
          "indexed": false,
          "internalType": "string",
          "name": "value",
          "type": "string"
        }
      ],
      "name": "valueDecrypted",
      "type": "event"
    },
    {
      "constant": true,
      "inputs": [],
      "name": "MaxBallot",
      "outputs": [
        {
          "internalType": "int256",
          "name": "",
          "type": "int256"
        }
      ],
      "payable": false,
      "stateMutability": "view",
      "type": "function"
    },
    {
      "constant": true,
      "inputs": [
        {
          "internalType": "address",
          "name": "",
          "type": "address"
        }
      ],
      "name": "alreadyVoted",
      "outputs": [
        {
          "internalType": "bool",
          "name": "",
          "type": "bool"
        }
      ],
      "payable": false,
      "stateMutability": "view",
      "type": "function"
    },
    {
      "constant": true,
      "inputs": [],
      "name": "ballotCount",
      "outputs": [
        {
          "internalType": "int256",
          "name": "",
          "type": "int256"
        }
      ],
      "payable": false,
      "stateMutability": "view",
      "type": "function"
    },
    {
      "constant": true,
      "inputs": [],
      "name": "currentOwner",
      "outputs": [
        {
          "internalType": "address",
          "name": "",
          "type": "address"
        }
      ],
      "payable": false,
      "stateMutability": "view",
      "type": "function"
    },
    {
      "constant": true,
      "inputs": [],
      "name": "decryptEnd",
      "outputs": [
        {
          "internalType": "bool",
          "name": "",
          "type": "bool"
        }
      ],
      "payable": false,
      "stateMutability": "view",
      "type": "function"
    },
    {
      "constant": true,
      "inputs": [],
      "name": "generator",
      "outputs": [
        {
          "internalType": "bytes",
          "name": "",
          "type": "bytes"
        }
      ],
      "payable": false,
      "stateMutability": "view",
      "type": "function"
    },
    {
      "constant": true,
      "inputs": [],
      "name": "prime",
      "outputs": [
        {
          "internalType": "bytes",
          "name": "",
          "type": "bytes"
        }
      ],
      "payable": false,
      "stateMutability": "view",
      "type": "function"
    },
    {
      "constant": true,
      "inputs": [],
      "name": "privateKey",
      "outputs": [
        {
          "internalType": "bytes",
          "name": "",
          "type": "bytes"
        }
      ],
      "payable": false,
      "stateMutability": "view",
      "type": "function"
    },
    {
      "constant": true,
      "inputs": [],
      "name": "publicKey",
      "outputs": [
        {
          "internalType": "bytes",
          "name": "",
          "type": "bytes"
        }
      ],
      "payable": false,
      "stateMutability": "view",
      "type": "function"
    },
    {
      "constant": true,
      "inputs": [],
      "name": "registryPeriodEnd",
      "outputs": [
        {
          "internalType": "bool",
          "name": "",
          "type": "bool"
        }
      ],
      "payable": false,
      "stateMutability": "view",
      "type": "function"
    },
    {
      "constant": true,
      "inputs": [],
      "name": "votePeriodEnd",
      "outputs": [
        {
          "internalType": "bool",
          "name": "",
          "type": "bool"
        }
      ],
      "payable": false,
      "stateMutability": "view",
      "type": "function"
    },
    {
      "constant": true,
      "inputs": [
        {
          "internalType": "address",
          "name": "",
          "type": "address"
        }
      ],
      "name": "votersList",
      "outputs": [
        {
          "internalType": "bool",
          "name": "",
          "type": "bool"
        }
      ],
      "payable": false,
      "stateMutability": "view",
      "type": "function"
    },
    {
      "constant": true,
      "inputs": [],
      "name": "isOwner",
      "outputs": [
        {
          "internalType": "bool",
          "name": "",
          "type": "bool"
        }
      ],
      "payable": false,
      "stateMutability": "view",
      "type": "function"
    },
    {
      "constant": false,
      "inputs": [
        {
          "internalType": "address",
          "name": "newOwner",
          "type": "address"
        }
      ],
      "name": "transferOwnership",
      "outputs": [],
      "payable": false,
      "stateMutability": "nonpayable",
      "type": "function"
    },
    {
      "constant": false,
      "inputs": [],
      "name": "setDecryptEnd",
      "outputs": [],
      "payable": false,
      "stateMutability": "nonpayable",
      "type": "function"
    },
    {
      "constant": false,
      "inputs": [],
      "name": "toggleRegisteryEnd",
      "outputs": [],
      "payable": false,
      "stateMutability": "nonpayable",
      "type": "function"
    },
    {
      "constant": false,
      "inputs": [],
      "name": "toggleVoteEnd",
      "outputs": [],
      "payable": false,
      "stateMutability": "nonpayable",
      "type": "function"
    },
    {
      "constant": true,
      "inputs": [
        {
          "internalType": "uint256",
          "name": "index",
          "type": "uint256"
        }
      ],
      "name": "getBallotByIndex",
      "outputs": [
        {
          "internalType": "string",
          "name": "A",
          "type": "string"
        },
        {
          "internalType": "string",
          "name": "B",
          "type": "string"
        },
        {
          "internalType": "string",
          "name": "value",
          "type": "string"
        },
        {
          "internalType": "address",
          "name": "voter",
          "type": "address"
        }
      ],
      "payable": false,
      "stateMutability": "view",
      "type": "function"
    },
    {
      "constant": false,
      "inputs": [
        {
          "internalType": "bytes",
          "name": "g",
          "type": "bytes"
        },
        {
          "internalType": "bytes",
          "name": "p",
          "type": "bytes"
        },
        {
          "internalType": "bytes",
          "name": "x",
          "type": "bytes"
        },
        {
          "internalType": "bytes",
          "name": "y",
          "type": "bytes"
        }
      ],
      "name": "setInfo",
      "outputs": [],
      "payable": false,
      "stateMutability": "nonpayable",
      "type": "function"
    },
    {
      "constant": true,
      "inputs": [],
      "name": "getInfo",
      "outputs": [
        {
          "internalType": "bytes",
          "name": "g",
          "type": "bytes"
        },
        {
          "internalType": "bytes",
          "name": "p",
          "type": "bytes"
        },
        {
          "internalType": "bytes",
          "name": "x",
          "type": "bytes"
        },
        {
          "internalType": "bytes",
          "name": "y",
          "type": "bytes"
        }
      ],
      "payable": false,
      "stateMutability": "view",
      "type": "function"
    },
    {
      "constant": false,
      "inputs": [
        {
          "internalType": "address",
          "name": "voter",
          "type": "address"
        }
      ],
      "name": "addVoterToVoterList",
      "outputs": [],
      "payable": false,
      "stateMutability": "nonpayable",
      "type": "function"
    },
    {
      "constant": false,
      "inputs": [
        {
          "internalType": "string",
          "name": "_A",
          "type": "string"
        },
        {
          "internalType": "string",
          "name": "_B",
          "type": "string"
        }
      ],
      "name": "vote",
      "outputs": [],
      "payable": false,
      "stateMutability": "nonpayable",
      "type": "function"
    },
    {
      "constant": false,
      "inputs": [
        {
          "internalType": "uint256",
          "name": "_index",
          "type": "uint256"
        },
        {
          "internalType": "string",
          "name": "_value",
          "type": "string"
        }
      ],
      "name": "Decrypt",
      "outputs": [],
      "payable": false,
      "stateMutability": "nonpayable",
      "type": "function"
    }
  ],
  "bytecode": "0x60806040526040518060400160405280600181526020017f300000000000000000000000000000000000000000000000000000000000000081525060059080519060200190620000519291906200049f565b5060006009556000600a60026101000a81548160ff0219169083151502179055503480156200007f57600080fd5b5060405162002bf338038062002bf383398181016040526060811015620000a557600080fd5b8101908080516040519392919084640100000000821115620000c657600080fd5b83820191506020820185811115620000dd57600080fd5b8251866001820283011164010000000082111715620000fb57600080fd5b8083526020830192505050908051906020019080838360005b838110156200013157808201518184015260208101905062000114565b50505050905090810190601f1680156200015f5780820380516001836020036101000a031916815260200191505b50604052602001805160405193929190846401000000008211156200018357600080fd5b838201915060208201858111156200019a57600080fd5b8251866001820283011164010000000082111715620001b857600080fd5b8083526020830192505050908051906020019080838360005b83811015620001ee578082015181840152602081019050620001d1565b50505050905090810190601f1680156200021c5780820380516001836020036101000a031916815260200191505b50604052602001805160405193929190846401000000008211156200024057600080fd5b838201915060208201858111156200025757600080fd5b82518660018202830111640100000000821117156200027557600080fd5b8083526020830192505050908051906020019080838360005b83811015620002ab5780820151818401526020810190506200028e565b50505050905090810190601f168015620002d95780820380516001836020036101000a031916815260200191505b5060405250505060008351141562000359576040517f08c379a000000000000000000000000000000000000000000000000000000000815260040180806020018281038252601c8152602001807f4d75737420706173732070726f706572205075626c6963204b6579210000000081525060200191505060405180910390fd5b336000806101000a81548173ffffffffffffffffffffffffffffffffffffffff021916908373ffffffffffffffffffffffffffffffffffffffff1602179055506000809054906101000a900473ffffffffffffffffffffffffffffffffffffffff1673ffffffffffffffffffffffffffffffffffffffff16600073ffffffffffffffffffffffffffffffffffffffff167f8be0079c531659141344cd1fd0a4f28419497f9722a3daafe3b4186f6b6457e060405160405180910390a36000600a60006101000a81548160ff0219169083151502179055506000600a60016101000a81548160ff02191690831515021790555082600490805190602001906200046392919062000526565b5081600690805190602001906200047c92919062000526565b5080600790805190602001906200049592919062000526565b50505050620005d5565b828054600181600116156101000203166002900490600052602060002090601f016020900481019282601f10620004e257805160ff191683800117855562000513565b8280016001018555821562000513579182015b8281111562000512578251825591602001919060010190620004f5565b5b509050620005229190620005ad565b5090565b828054600181600116156101000203166002900490600052602060002090601f016020900481019282601f106200056957805160ff19168380011785556200059a565b828001600101855582156200059a579182015b82811115620005995782518255916020019190600101906200057c565b5b509050620005a99190620005ad565b5090565b620005d291905b80821115620005ce576000816000905550600101620005b4565b5090565b90565b61260e80620005e56000396000f3fe608060405234801561001057600080fd5b506004361061014d5760003560e01c80638634ca2e116100c3578063c95e11e01161007c578063c95e11e014610a2d578063d0c38aa614610a37578063daababe214610aba578063e8d5940d14610ad8578063f2fde38b14610c2a578063fa6ed5db14610c6e5761014d565b80638634ca2e1461072a5780638f32d59b1461076e578063b387ef9214610790578063c0030032146107da578063c7ee005e146107f8578063c8b3d5ac1461087b5761014d565b8063448f8ae611610115578063448f8ae6146103ae57806349da5a0f146103d05780635a9b0b891461045357806363ffab311461061a5780636b0285551461069d5780637afa1eed146106a75761014d565b806306d2ad40146101525780631de31214146101ae5780632ac736b5146103265780632f6b120914610348578063443019fe14610352575b600080fd5b6101946004803603602081101561016857600080fd5b81019080803573ffffffffffffffffffffffffffffffffffffffff169060200190929190505050610c90565b604051808215151515815260200191505060405180910390f35b610324600480360360808110156101c457600080fd5b81019080803590602001906401000000008111156101e157600080fd5b8201836020820111156101f357600080fd5b8035906020019184600183028401116401000000008311171561021557600080fd5b90919293919293908035906020019064010000000081111561023657600080fd5b82018360208201111561024857600080fd5b8035906020019184600183028401116401000000008311171561026a57600080fd5b90919293919293908035906020019064010000000081111561028b57600080fd5b82018360208201111561029d57600080fd5b803590602001918460018302840111640100000000831117156102bf57600080fd5b9091929391929390803590602001906401000000008111156102e057600080fd5b8201836020820111156102f257600080fd5b8035906020019184600183028401116401000000008311171561031457600080fd5b9091929391929390505050610cb0565b005b61032e610e7b565b604051808215151515815260200191505060405180910390f35b610350610e8e565b005b6103946004803603602081101561036857600080fd5b81019080803573ffffffffffffffffffffffffffffffffffffffff169060200190929190505050610f34565b604051808215151515815260200191505060405180910390f35b6103b6610f54565b604051808215151515815260200191505060405180910390f35b6103d8610f67565b6040518080602001828103825283818151815260200191508051906020019080838360005b838110156104185780820151818401526020810190506103fd565b50505050905090810190601f1680156104455780820380516001836020036101000a031916815260200191505b509250505060405180910390f35b61045b611005565b6040518080602001806020018060200180602001858103855289818151815260200191508051906020019080838360005b838110156104a757808201518184015260208101905061048c565b50505050905090810190601f1680156104d45780820380516001836020036101000a031916815260200191505b50858103845288818151815260200191508051906020019080838360005b8381101561050d5780820151818401526020810190506104f2565b50505050905090810190601f16801561053a5780820380516001836020036101000a031916815260200191505b50858103835287818151815260200191508051906020019080838360005b83811015610573578082015181840152602081019050610558565b50505050905090810190601f1680156105a05780820380516001836020036101000a031916815260200191505b50858103825286818151815260200191508051906020019080838360005b838110156105d95780820151818401526020810190506105be565b50505050905090810190601f1680156106065780820380516001836020036101000a031916815260200191505b509850505050505050505060405180910390f35b610622611291565b6040518080602001828103825283818151815260200191508051906020019080838360005b83811015610662578082015181840152602081019050610647565b50505050905090810190601f16801561068f5780820380516001836020036101000a031916815260200191505b509250505060405180910390f35b6106a561132f565b005b6106af6113d5565b6040518080602001828103825283818151815260200191508051906020019080838360005b838110156106ef5780820151818401526020810190506106d4565b50505050905090810190601f16801561071c5780820380516001836020036101000a031916815260200191505b509250505060405180910390f35b61076c6004803603602081101561074057600080fd5b81019080803573ffffffffffffffffffffffffffffffffffffffff169060200190929190505050611473565b005b61077661174c565b604051808215151515815260200191505060405180910390f35b6107986117a3565b604051808273ffffffffffffffffffffffffffffffffffffffff1673ffffffffffffffffffffffffffffffffffffffff16815260200191505060405180910390f35b6107e26117c8565b6040518082815260200191505060405180910390f35b6108006117ce565b6040518080602001828103825283818151815260200191508051906020019080838360005b83811015610840578082015181840152602081019050610825565b50505050905090810190601f16801561086d5780820380516001836020036101000a031916815260200191505b509250505060405180910390f35b6108a76004803603602081101561089157600080fd5b810190808035906020019092919050505061186c565b604051808060200180602001806020018573ffffffffffffffffffffffffffffffffffffffff1673ffffffffffffffffffffffffffffffffffffffff168152602001848103845288818151815260200191508051906020019080838360005b83811015610921578082015181840152602081019050610906565b50505050905090810190601f16801561094e5780820380516001836020036101000a031916815260200191505b50848103835287818151815260200191508051906020019080838360005b8381101561098757808201518184015260208101905061096c565b50505050905090810190601f1680156109b45780820380516001836020036101000a031916815260200191505b50848103825286818151815260200191508051906020019080838360005b838110156109ed5780820151818401526020810190506109d2565b50505050905090810190601f168015610a1a5780820380516001836020036101000a031916815260200191505b5097505050505050505060405180910390f35b610a35611b86565b005b610ab860048036036040811015610a4d57600080fd5b810190808035906020019092919080359060200190640100000000811115610a7457600080fd5b820183602082011115610a8657600080fd5b80359060200191846001830284011164010000000083111715610aa857600080fd5b9091929391929390505050611c1d565b005b610ac2611d35565b6040518082815260200191505060405180910390f35b610c2860048036036040811015610aee57600080fd5b8101908080359060200190640100000000811115610b0b57600080fd5b820183602082011115610b1d57600080fd5b80359060200191846001830284011164010000000083111715610b3f57600080fd5b91908080601f016020809104026020016040519081016040528093929190818152602001838380828437600081840152601f19601f82011690508083019250505050505050919291929080359060200190640100000000811115610ba257600080fd5b820183602082011115610bb457600080fd5b80359060200191846001830284011164010000000083111715610bd657600080fd5b91908080601f016020809104026020016040519081016040528093929190818152602001838380828437600081840152601f19601f820116905080830192505050505050509192919290505050611d3b565b005b610c6c60048036036020811015610c4057600080fd5b81019080803573ffffffffffffffffffffffffffffffffffffffff169060200190929190505050612208565b005b610c766123e3565b604051808215151515815260200191505060405180910390f35b60036020528060005260406000206000915054906101000a900460ff1681565b610cb861174c565b610d2a576040517f08c379a00000000000000000000000000000000000000000000000000000000081526004018080602001828103825260178152602001807f4f6e6c79204f776e65722063616e20646f20746869732100000000000000000081525060200191505060405180910390fd5b878760069190610d3b9291906123f6565b50858560079190610d4d9291906123f6565b50838360059190610d5f9291906123f6565b50818160049190610d719291906123f6565b507fec023754730663bc04dfc5ad1dccd1b07d792bd057607e2fb39211bcbb0ed4288888888888888888604051808060200180602001806020018060200185810385528d8d82818152602001925080828437600081840152601f19601f82011690508083019250505085810384528b8b82818152602001925080828437600081840152601f19601f8201169050808301925050508581038352898982818152602001925080828437600081840152601f19601f8201169050808301925050508581038252878782818152602001925080828437600081840152601f19601f8201169050808301925050509c5050505050505050505050505060405180910390a15050505050505050565b600a60009054906101000a900460ff1681565b610e9661174c565b610f08576040517f08c379a00000000000000000000000000000000000000000000000000000000081526004018080602001828103825260178152602001807f4f6e6c79204f776e65722063616e20646f20746869732100000000000000000081525060200191505060405180910390fd5b600a60009054906101000a900460ff1615600a60006101000a81548160ff021916908315150217905550565b60026020528060005260406000206000915054906101000a900460ff1681565b600a60029054906101000a900460ff1681565b60058054600181600116156101000203166002900480601f016020809104026020016040519081016040528092919081815260200182805460018160011615610100020316600290048015610ffd5780601f10610fd257610100808354040283529160200191610ffd565b820191906000526020600020905b815481529060010190602001808311610fe057829003601f168201915b505050505081565b6060806060806006600760056004838054600181600116156101000203166002900480601f0160208091040260200160405190810160405280929190818152602001828054600181600116156101000203166002900480156110a85780601f1061107d576101008083540402835291602001916110a8565b820191906000526020600020905b81548152906001019060200180831161108b57829003601f168201915b50505050509350828054600181600116156101000203166002900480601f0160208091040260200160405190810160405280929190818152602001828054600181600116156101000203166002900480156111445780601f1061111957610100808354040283529160200191611144565b820191906000526020600020905b81548152906001019060200180831161112757829003601f168201915b50505050509250818054600181600116156101000203166002900480601f0160208091040260200160405190810160405280929190818152602001828054600181600116156101000203166002900480156111e05780601f106111b5576101008083540402835291602001916111e0565b820191906000526020600020905b8154815290600101906020018083116111c357829003601f168201915b50505050509150808054600181600116156101000203166002900480601f01602080910402602001604051908101604052809291908181526020018280546001816001161561010002031660029004801561127c5780601f106112515761010080835404028352916020019161127c565b820191906000526020600020905b81548152906001019060200180831161125f57829003601f168201915b50505050509050935093509350935090919293565b60048054600181600116156101000203166002900480601f0160208091040260200160405190810160405280929190818152602001828054600181600116156101000203166002900480156113275780601f106112fc57610100808354040283529160200191611327565b820191906000526020600020905b81548152906001019060200180831161130a57829003601f168201915b505050505081565b61133761174c565b6113a9576040517f08c379a00000000000000000000000000000000000000000000000000000000081526004018080602001828103825260178152602001807f4f6e6c79204f776e65722063616e20646f20746869732100000000000000000081525060200191505060405180910390fd5b600a60019054906101000a900460ff1615600a60016101000a81548160ff021916908315150217905550565b60068054600181600116156101000203166002900480601f01602080910402602001604051908101604052809291908181526020018280546001816001161561010002031660029004801561146b5780601f106114405761010080835404028352916020019161146b565b820191906000526020600020905b81548152906001019060200180831161144e57829003601f168201915b505050505081565b61147b61174c565b6114ed576040517f08c379a00000000000000000000000000000000000000000000000000000000081526004018080602001828103825260178152602001807f4f6e6c79204f776e65722063616e20646f20746869732100000000000000000081525060200191505060405180910390fd5b60001515600260008373ffffffffffffffffffffffffffffffffffffffff1673ffffffffffffffffffffffffffffffffffffffff16815260200190815260200160002060009054906101000a900460ff161515146115b3576040517f08c379a00000000000000000000000000000000000000000000000000000000081526004018080602001828103825260138152602001807f766f74657220616c72656164792061646465640000000000000000000000000081525060200191505060405180910390fd5b600a60009054906101000a900460ff1615611636576040517f08c379a000000000000000000000000000000000000000000000000000000000815260040180806020018281038252601d8152602001807f726567697374727920706572696f6420616c726561647920656e64656400000081525060200191505060405180910390fd5b6001600260008373ffffffffffffffffffffffffffffffffffffffff1673ffffffffffffffffffffffffffffffffffffffff16815260200190815260200160002060006101000a81548160ff0219169083151502179055506000600360008373ffffffffffffffffffffffffffffffffffffffff1673ffffffffffffffffffffffffffffffffffffffff16815260200190815260200160002060006101000a81548160ff0219169083151502179055507f46c06e25e47f79bbb4bc88c99e0c45369844d4a6bc8d28009bbe448eb0270ace81604051808273ffffffffffffffffffffffffffffffffffffffff1673ffffffffffffffffffffffffffffffffffffffff16815260200191505060405180910390a150565b60008060009054906101000a900473ffffffffffffffffffffffffffffffffffffffff1673ffffffffffffffffffffffffffffffffffffffff163373ffffffffffffffffffffffffffffffffffffffff1614905090565b6000809054906101000a900473ffffffffffffffffffffffffffffffffffffffff1681565b60095481565b60078054600181600116156101000203166002900480601f0160208091040260200160405190810160405280929190818152602001828054600181600116156101000203166002900480156118645780601f1061183957610100808354040283529160200191611864565b820191906000526020600020905b81548152906001019060200180831161184757829003601f168201915b505050505081565b6060806060600060018054905085106118ed576040517f08c379a00000000000000000000000000000000000000000000000000000000081526004018080602001828103825260168152602001807f4d75737420706173732076616c696420696e646578210000000000000000000081525060200191505060405180910390fd5b6118f5612476565b6001868154811061190257fe5b90600052602060002090600402016040518060800160405290816000820160009054906101000a900473ffffffffffffffffffffffffffffffffffffffff1673ffffffffffffffffffffffffffffffffffffffff1673ffffffffffffffffffffffffffffffffffffffff168152602001600182018054600181600116156101000203166002900480601f016020809104026020016040519081016040528092919081815260200182805460018160011615610100020316600290048015611a0a5780601f106119df57610100808354040283529160200191611a0a565b820191906000526020600020905b8154815290600101906020018083116119ed57829003601f168201915b50505050508152602001600282018054600181600116156101000203166002900480601f016020809104026020016040519081016040528092919081815260200182805460018160011615610100020316600290048015611aac5780601f10611a8157610100808354040283529160200191611aac565b820191906000526020600020905b815481529060010190602001808311611a8f57829003601f168201915b50505050508152602001600382018054600181600116156101000203166002900480601f016020809104026020016040519081016040528092919081815260200182805460018160011615610100020316600290048015611b4e5780601f10611b2357610100808354040283529160200191611b4e565b820191906000526020600020905b815481529060010190602001808311611b3157829003601f168201915b505050505081525050905080602001518160400151826060015183600001518393508292508191509450945094509450509193509193565b611b8e61174c565b611c00576040517f08c379a00000000000000000000000000000000000000000000000000000000081526004018080602001828103825260178152602001807f4f6e6c79204f776e65722063616e20646f20746869732100000000000000000081525060200191505060405180910390fd5b6001600a60026101000a81548160ff021916908315150217905550565b611c2561174c565b611c97576040517f08c379a00000000000000000000000000000000000000000000000000000000081526004018080602001828103825260178152602001807f4f6e6c79204f776e65722063616e20646f20746869732100000000000000000081525060200191505060405180910390fd5b818160018581548110611ca657fe5b90600052602060002090600402016003019190611cc49291906124b4565b507f5b777187d10f86b49e4ce9058d45d423be5beaff49d95d0695397b84adbc172783838360405180848152602001806020018281038252848482818152602001925080828437600081840152601f19601f82011690508083019250505094505050505060405180910390a1505050565b60085481565b600260003373ffffffffffffffffffffffffffffffffffffffff1673ffffffffffffffffffffffffffffffffffffffff16815260200190815260200160002060009054906101000a900460ff16611dfa576040517f08c379a00000000000000000000000000000000000000000000000000000000081526004018080602001828103825260178152602001807f796f757265206e6f7420612076616c696420766f74657200000000000000000081525060200191505060405180910390fd5b600360003373ffffffffffffffffffffffffffffffffffffffff1673ffffffffffffffffffffffffffffffffffffffff16815260200190815260200160002060009054906101000a900460ff1615611eba576040517f08c379a00000000000000000000000000000000000000000000000000000000081526004018080602001828103825260118152602001807f796f7520616c726561647920766f74656400000000000000000000000000000081525060200191505060405180910390fd5b600a60019054906101000a900460ff1615611f3d576040517f08c379a000000000000000000000000000000000000000000000000000000000815260040180806020018281038252601b8152602001807f766f74696e6720706572696f6420616c726561647920656e646564000000000081525060200191505060405180910390fd5b6001600360003373ffffffffffffffffffffffffffffffffffffffff1673ffffffffffffffffffffffffffffffffffffffff16815260200190815260200160002060006101000a81548160ff021916908315150217905550611f9d612476565b60405180608001604052803373ffffffffffffffffffffffffffffffffffffffff1681526020018481526020018381526020016040518060200160405280600081525081525090506001819080600181540180825580915050906001820390600052602060002090600402016000909192909190915060008201518160000160006101000a81548173ffffffffffffffffffffffffffffffffffffffff021916908373ffffffffffffffffffffffffffffffffffffffff1602179055506020820151816001019080519060200190612076929190612534565b506040820151816002019080519060200190612093929190612534565b5060608201518160030190805190602001906120b0929190612534565b505050506009600081548092919060010191905055507ff3af86b91a9ed622437437bfad97975edd009f8f04d83638551daa7d190a2538338484604051808473ffffffffffffffffffffffffffffffffffffffff1673ffffffffffffffffffffffffffffffffffffffff1681526020018060200180602001838103835285818151815260200191508051906020019080838360005b83811015612160578082015181840152602081019050612145565b50505050905090810190601f16801561218d5780820380516001836020036101000a031916815260200191505b50838103825284818151815260200191508051906020019080838360005b838110156121c65780820151818401526020810190506121ab565b50505050905090810190601f1680156121f35780820380516001836020036101000a031916815260200191505b509550505050505060405180910390a1505050565b61221061174c565b612282576040517f08c379a00000000000000000000000000000000000000000000000000000000081526004018080602001828103825260178152602001807f4f6e6c79204f776e65722063616e20646f20746869732100000000000000000081525060200191505060405180910390fd5b600073ffffffffffffffffffffffffffffffffffffffff168173ffffffffffffffffffffffffffffffffffffffff161415612325576040517f08c379a00000000000000000000000000000000000000000000000000000000081526004018080602001828103825260198152602001807f43616e206e6f74207472616e7366657220746f205a65726f210000000000000081525060200191505060405180910390fd5b8073ffffffffffffffffffffffffffffffffffffffff166000809054906101000a900473ffffffffffffffffffffffffffffffffffffffff1673ffffffffffffffffffffffffffffffffffffffff167f8be0079c531659141344cd1fd0a4f28419497f9722a3daafe3b4186f6b6457e060405160405180910390a3806000806101000a81548173ffffffffffffffffffffffffffffffffffffffff021916908373ffffffffffffffffffffffffffffffffffffffff16021790555050565b600a60019054906101000a900460ff1681565b828054600181600116156101000203166002900490600052602060002090601f016020900481019282601f1061243757803560ff1916838001178555612465565b82800160010185558215612465579182015b82811115612464578235825591602001919060010190612449565b5b50905061247291906125b4565b5090565b6040518060800160405280600073ffffffffffffffffffffffffffffffffffffffff1681526020016060815260200160608152602001606081525090565b828054600181600116156101000203166002900490600052602060002090601f016020900481019282601f106124f557803560ff1916838001178555612523565b82800160010185558215612523579182015b82811115612522578235825591602001919060010190612507565b5b50905061253091906125b4565b5090565b828054600181600116156101000203166002900490600052602060002090601f016020900481019282601f1061257557805160ff19168380011785556125a3565b828001600101855582156125a3579182015b828111156125a2578251825591602001919060010190612587565b5b5090506125b091906125b4565b5090565b6125d691905b808211156125d25760008160009055506001016125ba565b5090565b9056fea265627a7a72315820ad955fef60615811bd57060539f7d68a95d723f7fd70990247ebf6f945f9224e64736f6c63430005100032",
  "source": "pragma solidity >=0.5.0 <0.8.0;\r\n\r\ncontract BallotBox {\r\n     struct ballot {\r\n        address voter;\r\n        string A;\r\n        string B;  \r\n        string decryptValue;\r\n    }\r\n    address public currentOwner;\r\n    function isOwner() public view returns (bool) {\r\n        return msg.sender == currentOwner;\r\n    }\r\n    modifier onlyOwner() {\r\n        require(isOwner(), \"Only Owner can do this!\");\r\n        _;\r\n    }\r\n\r\n    function transferOwnership(address newOwner) public onlyOwner {\r\n        require(newOwner != address(0), \"Can not transfer to Zero!\");\r\n        emit OwnershipTransferred(currentOwner, newOwner);\r\n        currentOwner = newOwner;\r\n    }\r\n    \r\n    ballot[] private ballotList;\r\n    \r\n    event OwnershipTransferred(address indexed previousOwner, address indexed newOwner);\r\n    event encryptionSet(bytes g,bytes p,bytes x,bytes y);\r\n    event AllowedVoterAdded(address voter);\r\n    event BallotAdded(address voter,string A,string B);\r\n    event valueDecrypted(uint index,string value );\r\n\r\n    mapping(address=>bool) public votersList;\r\n    mapping(address=>bool) public alreadyVoted;\r\n    bytes public publicKey;\r\n    bytes public privateKey=\"0\";\r\n    bytes public generator;\r\n    bytes public prime;\r\n    \r\n    int public MaxBallot;\r\n    int public ballotCount=0;\r\n    bool public registryPeriodEnd;\r\n    bool public votePeriodEnd;\r\n    bool public decryptEnd=false;\r\n\r\n    function setDecryptEnd() external onlyOwner {\r\n        decryptEnd=true;\r\n    }\r\n    function toggleRegisteryEnd() external onlyOwner {\r\n        registryPeriodEnd=!registryPeriodEnd;\r\n    }\r\n    function toggleVoteEnd() external onlyOwner {\r\n        votePeriodEnd=!votePeriodEnd;\r\n    }\r\n    constructor (bytes memory _publicKey,bytes memory _generator,bytes memory _prime) public {\r\n        require(\r\n            _publicKey.length != 0,\r\n            \"Must pass proper Public Key!\");\r\n        currentOwner = msg.sender;\r\n        emit OwnershipTransferred(address(0), currentOwner);\r\n        registryPeriodEnd=false;\r\n        votePeriodEnd=false;\r\n        publicKey=_publicKey;\r\n        generator=_generator;\r\n        prime=_prime;\r\n        \r\n    }\r\n    function getBallotByIndex(uint index) view public returns(string memory A,string memory B, string memory value,address voter)  {\r\n        require(index<ballotList.length,\"Must pass valid index!\");\r\n        ballot memory b = ballotList[index];\r\n        return(b.A,b.B,b.decryptValue,b.voter);\r\n    }\r\n    function setInfo( bytes calldata  g,bytes calldata  p,bytes calldata  x,bytes calldata  y) external onlyOwner {\r\n        generator=g;\r\n        prime=p;\r\n        privateKey=x;\r\n        publicKey=y;\r\n        emit encryptionSet(g, p, x, y);\r\n    }\r\n    function getInfo()view public returns(bytes memory g ,bytes memory p,bytes memory x, bytes memory y){\r\n        return(generator,prime,privateKey,publicKey);\r\n    }\r\n    \r\n    function addVoterToVoterList(address voter) external onlyOwner {\r\n        require(votersList[voter]==false,\"voter already added\");\r\n        require(!registryPeriodEnd,\"registry period already ended\");\r\n        votersList[voter]=true;\r\n        alreadyVoted[voter]=false;\r\n        emit AllowedVoterAdded(voter);\r\n    }\r\n\r\n    function vote(string memory _A,string memory _B) public {\r\n        require(votersList[msg.sender],\"youre not a valid voter\");\r\n        require(!alreadyVoted[msg.sender],\"you already voted\");\r\n        require(!votePeriodEnd,\"voting period already ended\");\r\n        alreadyVoted[msg.sender]=true;\r\n        ballot memory balot=ballot(msg.sender,_A,_B,\"\");\r\n        ballotList.push(balot);\r\n        ballotCount++;\r\n        emit BallotAdded(msg.sender,_A,_B);\r\n\r\n    }\r\n    function Decrypt(uint _index,string calldata _value) external onlyOwner {\r\n        ballotList[_index].decryptValue=_value;\r\n        emit valueDecrypted(_index,_value);\r\n    }\r\n}",
  "sourcePath": "C:/Users/Pc/Desktop/PROJETFF/Drizzle-tutorial-with-React-Hooks-master/contracts/BallotBox.sol",
  "compiler": {
    "name": "solc",
    "version": "0.5.16+commit.9c3226ce.Emscripten.clang"
  },
  "schemaVersion": "3.4.0",
  "updatedAt": "2021-07-07T12:53:45.779Z",
  "networkType": "ethereum",
  "devdoc": {
    "methods": {}
  },
  "userdoc": {
    "methods": {}
  }
}