{
  "contractName": "BallotBox",
  "abi": [
    {
      "inputs": [
        {
          "internalType": "bytes",
          "name": "_publicKey",
          "type": "bytes"
        },
        {
          "internalType": "bytes",
          "name": "_generator",
          "type": "bytes"
        },
        {
          "internalType": "bytes",
          "name": "_prime",
          "type": "bytes"
        }
      ],
      "payable": false,
      "stateMutability": "nonpayable",
      "type": "constructor"
    },
    {
      "anonymous": false,
      "inputs": [
        {
          "indexed": false,
          "internalType": "address",
          "name": "voter",
          "type": "address"
        }
      ],
      "name": "AllowedVoterAdded",
      "type": "event"
    },
    {
      "anonymous": false,
      "inputs": [
        {
          "indexed": false,
          "internalType": "address",
          "name": "voter",
          "type": "address"
        },
        {
          "indexed": false,
          "internalType": "string",
          "name": "A",
          "type": "string"
        },
        {
          "indexed": false,
          "internalType": "string",
          "name": "B",
          "type": "string"
        }
      ],
      "name": "BallotAdded",
      "type": "event"
    },
    {
      "anonymous": false,
      "inputs": [
        {
          "indexed": true,
          "internalType": "address",
          "name": "previousOwner",
          "type": "address"
        },
        {
          "indexed": true,
          "internalType": "address",
          "name": "newOwner",
          "type": "address"
        }
      ],
      "name": "OwnershipTransferred",
      "type": "event"
    },
    {
      "anonymous": false,
      "inputs": [
        {
          "indexed": false,
          "internalType": "bytes",
          "name": "g",
          "type": "bytes"
        },
        {
          "indexed": false,
          "internalType": "bytes",
          "name": "p",
          "type": "bytes"
        },
        {
          "indexed": false,
          "internalType": "bytes",
          "name": "x",
          "type": "bytes"
        },
        {
          "indexed": false,
          "internalType": "bytes",
          "name": "y",
          "type": "bytes"
        }
      ],
      "name": "encryptionSet",
      "type": "event"
    },
    {
      "anonymous": false,
      "inputs": [
        {
          "indexed": false,
          "internalType": "uint256",
          "name": "index",
          "type": "uint256"
        },
        {
          "indexed": false,
          "internalType": "string",
          "name": "value",
          "type": "string"
        }
      ],
      "name": "valueDecrypted",
      "type": "event"
    },
    {
      "constant": true,
      "inputs": [
        {
          "internalType": "address",
          "name": "",
          "type": "address"
        }
      ],
      "name": "alreadyVoted",
      "outputs": [
        {
          "internalType": "bool",
          "name": "",
          "type": "bool"
        }
      ],
      "payable": false,
      "stateMutability": "view",
      "type": "function"
    },
    {
      "constant": true,
      "inputs": [],
      "name": "ballotCount",
      "outputs": [
        {
          "internalType": "int256",
          "name": "",
          "type": "int256"
        }
      ],
      "payable": false,
      "stateMutability": "view",
      "type": "function"
    },
    {
      "constant": true,
      "inputs": [],
      "name": "currentOwner",
      "outputs": [
        {
          "internalType": "address",
          "name": "",
          "type": "address"
        }
      ],
      "payable": false,
      "stateMutability": "view",
      "type": "function"
    },
    {
      "constant": true,
      "inputs": [],
      "name": "generator",
      "outputs": [
        {
          "internalType": "bytes",
          "name": "",
          "type": "bytes"
        }
      ],
      "payable": false,
      "stateMutability": "view",
      "type": "function"
    },
    {
      "constant": true,
      "inputs": [],
      "name": "prime",
      "outputs": [
        {
          "internalType": "bytes",
          "name": "",
          "type": "bytes"
        }
      ],
      "payable": false,
      "stateMutability": "view",
      "type": "function"
    },
    {
      "constant": true,
      "inputs": [],
      "name": "privateKey",
      "outputs": [
        {
          "internalType": "bytes",
          "name": "",
          "type": "bytes"
        }
      ],
      "payable": false,
      "stateMutability": "view",
      "type": "function"
    },
    {
      "constant": true,
      "inputs": [],
      "name": "publicKey",
      "outputs": [
        {
          "internalType": "bytes",
          "name": "",
          "type": "bytes"
        }
      ],
      "payable": false,
      "stateMutability": "view",
      "type": "function"
    },
    {
      "constant": true,
      "inputs": [
        {
          "internalType": "address",
          "name": "",
          "type": "address"
        }
      ],
      "name": "votersList",
      "outputs": [
        {
          "internalType": "bool",
          "name": "",
          "type": "bool"
        }
      ],
      "payable": false,
      "stateMutability": "view",
      "type": "function"
    },
    {
      "constant": true,
      "inputs": [],
      "name": "isOwner",
      "outputs": [
        {
          "internalType": "bool",
          "name": "",
          "type": "bool"
        }
      ],
      "payable": false,
      "stateMutability": "view",
      "type": "function"
    },
    {
      "constant": false,
      "inputs": [
        {
          "internalType": "address",
          "name": "newOwner",
          "type": "address"
        }
      ],
      "name": "transferOwnership",
      "outputs": [],
      "payable": false,
      "stateMutability": "nonpayable",
      "type": "function"
    },
    {
      "constant": false,
      "inputs": [],
      "name": "toggleRegisteryEnd",
      "outputs": [],
      "payable": false,
      "stateMutability": "nonpayable",
      "type": "function"
    },
    {
      "constant": false,
      "inputs": [],
      "name": "toggleVoteEnd",
      "outputs": [],
      "payable": false,
      "stateMutability": "nonpayable",
      "type": "function"
    },
    {
      "constant": true,
      "inputs": [
        {
          "internalType": "uint256",
          "name": "index",
          "type": "uint256"
        }
      ],
      "name": "getBallotByIndex",
      "outputs": [
        {
          "internalType": "string",
          "name": "A",
          "type": "string"
        },
        {
          "internalType": "string",
          "name": "B",
          "type": "string"
        },
        {
          "internalType": "address",
          "name": "voter",
          "type": "address"
        }
      ],
      "payable": false,
      "stateMutability": "view",
      "type": "function"
    },
    {
      "constant": false,
      "inputs": [
        {
          "internalType": "bytes",
          "name": "g",
          "type": "bytes"
        },
        {
          "internalType": "bytes",
          "name": "p",
          "type": "bytes"
        },
        {
          "internalType": "bytes",
          "name": "x",
          "type": "bytes"
        },
        {
          "internalType": "bytes",
          "name": "y",
          "type": "bytes"
        }
      ],
      "name": "setInfo",
      "outputs": [],
      "payable": false,
      "stateMutability": "nonpayable",
      "type": "function"
    },
    {
      "constant": true,
      "inputs": [],
      "name": "getInfo",
      "outputs": [
        {
          "internalType": "bytes",
          "name": "g",
          "type": "bytes"
        },
        {
          "internalType": "bytes",
          "name": "p",
          "type": "bytes"
        },
        {
          "internalType": "bytes",
          "name": "x",
          "type": "bytes"
        },
        {
          "internalType": "bytes",
          "name": "y",
          "type": "bytes"
        }
      ],
      "payable": false,
      "stateMutability": "view",
      "type": "function"
    },
    {
      "constant": false,
      "inputs": [
        {
          "internalType": "address",
          "name": "voter",
          "type": "address"
        }
      ],
      "name": "addVoterToVoterList",
      "outputs": [],
      "payable": false,
      "stateMutability": "nonpayable",
      "type": "function"
    },
    {
      "constant": false,
      "inputs": [
        {
          "internalType": "string",
          "name": "_A",
          "type": "string"
        },
        {
          "internalType": "string",
          "name": "_B",
          "type": "string"
        }
      ],
      "name": "vote",
      "outputs": [],
      "payable": false,
      "stateMutability": "nonpayable",
      "type": "function"
    },
    {
      "constant": false,
      "inputs": [
        {
          "internalType": "uint256",
          "name": "_index",
          "type": "uint256"
        },
        {
          "internalType": "string",
          "name": "_value",
          "type": "string"
        }
      ],
      "name": "Decrypt",
      "outputs": [],
      "payable": false,
      "stateMutability": "nonpayable",
      "type": "function"
    }
  ],
  "bytecode": "0x60806040526040518060400160405280600181526020017f3000000000000000000000000000000000000000000000000000000000000000815250600590805190602001906200005192919062000484565b5060006008553480156200006457600080fd5b50604051620029c5380380620029c5833981810160405260608110156200008a57600080fd5b8101908080516040519392919084640100000000821115620000ab57600080fd5b83820191506020820185811115620000c257600080fd5b8251866001820283011164010000000082111715620000e057600080fd5b8083526020830192505050908051906020019080838360005b8381101562000116578082015181840152602081019050620000f9565b50505050905090810190601f168015620001445780820380516001836020036101000a031916815260200191505b50604052602001805160405193929190846401000000008211156200016857600080fd5b838201915060208201858111156200017f57600080fd5b82518660018202830111640100000000821117156200019d57600080fd5b8083526020830192505050908051906020019080838360005b83811015620001d3578082015181840152602081019050620001b6565b50505050905090810190601f168015620002015780820380516001836020036101000a031916815260200191505b50604052602001805160405193929190846401000000008211156200022557600080fd5b838201915060208201858111156200023c57600080fd5b82518660018202830111640100000000821117156200025a57600080fd5b8083526020830192505050908051906020019080838360005b838110156200029057808201518184015260208101905062000273565b50505050905090810190601f168015620002be5780820380516001836020036101000a031916815260200191505b506040525050506000835114156200033e576040517f08c379a000000000000000000000000000000000000000000000000000000000815260040180806020018281038252601c8152602001807f4d75737420706173732070726f706572205075626c6963204b6579210000000081525060200191505060405180910390fd5b336000806101000a81548173ffffffffffffffffffffffffffffffffffffffff021916908373ffffffffffffffffffffffffffffffffffffffff1602179055506000809054906101000a900473ffffffffffffffffffffffffffffffffffffffff1673ffffffffffffffffffffffffffffffffffffffff16600073ffffffffffffffffffffffffffffffffffffffff167f8be0079c531659141344cd1fd0a4f28419497f9722a3daafe3b4186f6b6457e060405160405180910390a36000600960006101000a81548160ff0219169083151502179055506000600960016101000a81548160ff0219169083151502179055508260049080519060200190620004489291906200050b565b508160069080519060200190620004619291906200050b565b5080600790805190602001906200047a9291906200050b565b50505050620005ba565b828054600181600116156101000203166002900490600052602060002090601f016020900481019282601f10620004c757805160ff1916838001178555620004f8565b82800160010185558215620004f8579182015b82811115620004f7578251825591602001919060010190620004da565b5b50905062000507919062000592565b5090565b828054600181600116156101000203166002900490600052602060002090601f016020900481019282601f106200054e57805160ff19168380011785556200057f565b828001600101855582156200057f579182015b828111156200057e57825182559160200191906001019062000561565b5b5090506200058e919062000592565b5090565b620005b791905b80821115620005b357600081600090555060010162000599565b5090565b90565b6123fb80620005ca6000396000f3fe608060405234801561001057600080fd5b50600436106101165760003560e01c80638634ca2e116100a2578063c7ee005e11610071578063c7ee005e1461077d578063c8b3d5ac14610800578063d0c38aa614610946578063e8d5940d146109c9578063f2fde38b14610b1b57610116565b80638634ca2e146106af5780638f32d59b146106f3578063b387ef9214610715578063c00300321461075f57610116565b806349da5a0f116100e957806349da5a0f146103555780635a9b0b89146103d857806363ffab311461059f5780636b028555146106225780637afa1eed1461062c57610116565b806306d2ad401461011b5780631de31214146101775780632f6b1209146102ef578063443019fe146102f9575b600080fd5b61015d6004803603602081101561013157600080fd5b81019080803573ffffffffffffffffffffffffffffffffffffffff169060200190929190505050610b5f565b604051808215151515815260200191505060405180910390f35b6102ed6004803603608081101561018d57600080fd5b81019080803590602001906401000000008111156101aa57600080fd5b8201836020820111156101bc57600080fd5b803590602001918460018302840111640100000000831117156101de57600080fd5b9091929391929390803590602001906401000000008111156101ff57600080fd5b82018360208201111561021157600080fd5b8035906020019184600183028401116401000000008311171561023357600080fd5b90919293919293908035906020019064010000000081111561025457600080fd5b82018360208201111561026657600080fd5b8035906020019184600183028401116401000000008311171561028857600080fd5b9091929391929390803590602001906401000000008111156102a957600080fd5b8201836020820111156102bb57600080fd5b803590602001918460018302840111640100000000831117156102dd57600080fd5b9091929391929390505050610b7f565b005b6102f7610d4a565b005b61033b6004803603602081101561030f57600080fd5b81019080803573ffffffffffffffffffffffffffffffffffffffff169060200190929190505050610df0565b604051808215151515815260200191505060405180910390f35b61035d610e10565b6040518080602001828103825283818151815260200191508051906020019080838360005b8381101561039d578082015181840152602081019050610382565b50505050905090810190601f1680156103ca5780820380516001836020036101000a031916815260200191505b509250505060405180910390f35b6103e0610eae565b6040518080602001806020018060200180602001858103855289818151815260200191508051906020019080838360005b8381101561042c578082015181840152602081019050610411565b50505050905090810190601f1680156104595780820380516001836020036101000a031916815260200191505b50858103845288818151815260200191508051906020019080838360005b83811015610492578082015181840152602081019050610477565b50505050905090810190601f1680156104bf5780820380516001836020036101000a031916815260200191505b50858103835287818151815260200191508051906020019080838360005b838110156104f85780820151818401526020810190506104dd565b50505050905090810190601f1680156105255780820380516001836020036101000a031916815260200191505b50858103825286818151815260200191508051906020019080838360005b8381101561055e578082015181840152602081019050610543565b50505050905090810190601f16801561058b5780820380516001836020036101000a031916815260200191505b509850505050505050505060405180910390f35b6105a761113a565b6040518080602001828103825283818151815260200191508051906020019080838360005b838110156105e75780820151818401526020810190506105cc565b50505050905090810190601f1680156106145780820380516001836020036101000a031916815260200191505b509250505060405180910390f35b61062a6111d8565b005b61063461127e565b6040518080602001828103825283818151815260200191508051906020019080838360005b83811015610674578082015181840152602081019050610659565b50505050905090810190601f1680156106a15780820380516001836020036101000a031916815260200191505b509250505060405180910390f35b6106f1600480360360208110156106c557600080fd5b81019080803573ffffffffffffffffffffffffffffffffffffffff16906020019092919050505061131c565b005b6106fb6115f5565b604051808215151515815260200191505060405180910390f35b61071d61164c565b604051808273ffffffffffffffffffffffffffffffffffffffff1673ffffffffffffffffffffffffffffffffffffffff16815260200191505060405180910390f35b610767611671565b6040518082815260200191505060405180910390f35b610785611677565b6040518080602001828103825283818151815260200191508051906020019080838360005b838110156107c55780820151818401526020810190506107aa565b50505050905090810190601f1680156107f25780820380516001836020036101000a031916815260200191505b509250505060405180910390f35b61082c6004803603602081101561081657600080fd5b8101908080359060200190929190505050611715565b6040518080602001806020018473ffffffffffffffffffffffffffffffffffffffff1673ffffffffffffffffffffffffffffffffffffffff168152602001838103835286818151815260200191508051906020019080838360005b838110156108a2578082015181840152602081019050610887565b50505050905090810190601f1680156108cf5780820380516001836020036101000a031916815260200191505b50838103825285818151815260200191508051906020019080838360005b838110156109085780820151818401526020810190506108ed565b50505050905090810190601f1680156109355780820380516001836020036101000a031916815260200191505b509550505050505060405180910390f35b6109c76004803603604081101561095c57600080fd5b81019080803590602001909291908035906020019064010000000081111561098357600080fd5b82018360208201111561099557600080fd5b803590602001918460018302840111640100000000831117156109b757600080fd5b9091929391929390505050611a23565b005b610b19600480360360408110156109df57600080fd5b81019080803590602001906401000000008111156109fc57600080fd5b820183602082011115610a0e57600080fd5b80359060200191846001830284011164010000000083111715610a3057600080fd5b91908080601f016020809104026020016040519081016040528093929190818152602001838380828437600081840152601f19601f82011690508083019250505050505050919291929080359060200190640100000000811115610a9357600080fd5b820183602082011115610aa557600080fd5b80359060200191846001830284011164010000000083111715610ac757600080fd5b91908080601f016020809104026020016040519081016040528093929190818152602001838380828437600081840152601f19601f820116905080830192505050505050509192919290505050611b3b565b005b610b5d60048036036020811015610b3157600080fd5b81019080803573ffffffffffffffffffffffffffffffffffffffff169060200190929190505050612008565b005b60036020528060005260406000206000915054906101000a900460ff1681565b610b876115f5565b610bf9576040517f08c379a00000000000000000000000000000000000000000000000000000000081526004018080602001828103825260178152602001807f4f6e6c79204f776e65722063616e20646f20746869732100000000000000000081525060200191505060405180910390fd5b878760069190610c0a9291906121e3565b50858560079190610c1c9291906121e3565b50838360059190610c2e9291906121e3565b50818160049190610c409291906121e3565b507fec023754730663bc04dfc5ad1dccd1b07d792bd057607e2fb39211bcbb0ed4288888888888888888604051808060200180602001806020018060200185810385528d8d82818152602001925080828437600081840152601f19601f82011690508083019250505085810384528b8b82818152602001925080828437600081840152601f19601f8201169050808301925050508581038352898982818152602001925080828437600081840152601f19601f8201169050808301925050508581038252878782818152602001925080828437600081840152601f19601f8201169050808301925050509c5050505050505050505050505060405180910390a15050505050505050565b610d526115f5565b610dc4576040517f08c379a00000000000000000000000000000000000000000000000000000000081526004018080602001828103825260178152602001807f4f6e6c79204f776e65722063616e20646f20746869732100000000000000000081525060200191505060405180910390fd5b600960009054906101000a900460ff1615600960006101000a81548160ff021916908315150217905550565b60026020528060005260406000206000915054906101000a900460ff1681565b60058054600181600116156101000203166002900480601f016020809104026020016040519081016040528092919081815260200182805460018160011615610100020316600290048015610ea65780601f10610e7b57610100808354040283529160200191610ea6565b820191906000526020600020905b815481529060010190602001808311610e8957829003601f168201915b505050505081565b6060806060806006600760056004838054600181600116156101000203166002900480601f016020809104026020016040519081016040528092919081815260200182805460018160011615610100020316600290048015610f515780601f10610f2657610100808354040283529160200191610f51565b820191906000526020600020905b815481529060010190602001808311610f3457829003601f168201915b50505050509350828054600181600116156101000203166002900480601f016020809104026020016040519081016040528092919081815260200182805460018160011615610100020316600290048015610fed5780601f10610fc257610100808354040283529160200191610fed565b820191906000526020600020905b815481529060010190602001808311610fd057829003601f168201915b50505050509250818054600181600116156101000203166002900480601f0160208091040260200160405190810160405280929190818152602001828054600181600116156101000203166002900480156110895780601f1061105e57610100808354040283529160200191611089565b820191906000526020600020905b81548152906001019060200180831161106c57829003601f168201915b50505050509150808054600181600116156101000203166002900480601f0160208091040260200160405190810160405280929190818152602001828054600181600116156101000203166002900480156111255780601f106110fa57610100808354040283529160200191611125565b820191906000526020600020905b81548152906001019060200180831161110857829003601f168201915b50505050509050935093509350935090919293565b60048054600181600116156101000203166002900480601f0160208091040260200160405190810160405280929190818152602001828054600181600116156101000203166002900480156111d05780601f106111a5576101008083540402835291602001916111d0565b820191906000526020600020905b8154815290600101906020018083116111b357829003601f168201915b505050505081565b6111e06115f5565b611252576040517f08c379a00000000000000000000000000000000000000000000000000000000081526004018080602001828103825260178152602001807f4f6e6c79204f776e65722063616e20646f20746869732100000000000000000081525060200191505060405180910390fd5b600960019054906101000a900460ff1615600960016101000a81548160ff021916908315150217905550565b60068054600181600116156101000203166002900480601f0160208091040260200160405190810160405280929190818152602001828054600181600116156101000203166002900480156113145780601f106112e957610100808354040283529160200191611314565b820191906000526020600020905b8154815290600101906020018083116112f757829003601f168201915b505050505081565b6113246115f5565b611396576040517f08c379a00000000000000000000000000000000000000000000000000000000081526004018080602001828103825260178152602001807f4f6e6c79204f776e65722063616e20646f20746869732100000000000000000081525060200191505060405180910390fd5b60001515600260008373ffffffffffffffffffffffffffffffffffffffff1673ffffffffffffffffffffffffffffffffffffffff16815260200190815260200160002060009054906101000a900460ff1615151461145c576040517f08c379a00000000000000000000000000000000000000000000000000000000081526004018080602001828103825260138152602001807f766f74657220616c72656164792061646465640000000000000000000000000081525060200191505060405180910390fd5b600960009054906101000a900460ff16156114df576040517f08c379a000000000000000000000000000000000000000000000000000000000815260040180806020018281038252601d8152602001807f726567697374727920706572696f6420616c726561647920656e64656400000081525060200191505060405180910390fd5b6001600260008373ffffffffffffffffffffffffffffffffffffffff1673ffffffffffffffffffffffffffffffffffffffff16815260200190815260200160002060006101000a81548160ff0219169083151502179055506000600360008373ffffffffffffffffffffffffffffffffffffffff1673ffffffffffffffffffffffffffffffffffffffff16815260200190815260200160002060006101000a81548160ff0219169083151502179055507f46c06e25e47f79bbb4bc88c99e0c45369844d4a6bc8d28009bbe448eb0270ace81604051808273ffffffffffffffffffffffffffffffffffffffff1673ffffffffffffffffffffffffffffffffffffffff16815260200191505060405180910390a150565b60008060009054906101000a900473ffffffffffffffffffffffffffffffffffffffff1673ffffffffffffffffffffffffffffffffffffffff163373ffffffffffffffffffffffffffffffffffffffff1614905090565b6000809054906101000a900473ffffffffffffffffffffffffffffffffffffffff1681565b60085481565b60078054600181600116156101000203166002900480601f01602080910402602001604051908101604052809291908181526020018280546001816001161561010002031660029004801561170d5780601f106116e25761010080835404028352916020019161170d565b820191906000526020600020905b8154815290600101906020018083116116f057829003601f168201915b505050505081565b60608060006001805490508410611794576040517f08c379a00000000000000000000000000000000000000000000000000000000081526004018080602001828103825260168152602001807f4d75737420706173732076616c696420696e646578210000000000000000000081525060200191505060405180910390fd5b61179c612263565b600185815481106117a957fe5b90600052602060002090600402016040518060800160405290816000820160009054906101000a900473ffffffffffffffffffffffffffffffffffffffff1673ffffffffffffffffffffffffffffffffffffffff1673ffffffffffffffffffffffffffffffffffffffff168152602001600182018054600181600116156101000203166002900480601f0160208091040260200160405190810160405280929190818152602001828054600181600116156101000203166002900480156118b15780601f10611886576101008083540402835291602001916118b1565b820191906000526020600020905b81548152906001019060200180831161189457829003601f168201915b50505050508152602001600282018054600181600116156101000203166002900480601f0160208091040260200160405190810160405280929190818152602001828054600181600116156101000203166002900480156119535780601f1061192857610100808354040283529160200191611953565b820191906000526020600020905b81548152906001019060200180831161193657829003601f168201915b50505050508152602001600382018054600181600116156101000203166002900480601f0160208091040260200160405190810160405280929190818152602001828054600181600116156101000203166002900480156119f55780601f106119ca576101008083540402835291602001916119f5565b820191906000526020600020905b8154815290600101906020018083116119d857829003601f168201915b5050505050815250509050806020015181604001518260000151829250819150935093509350509193909250565b611a2b6115f5565b611a9d576040517f08c379a00000000000000000000000000000000000000000000000000000000081526004018080602001828103825260178152602001807f4f6e6c79204f776e65722063616e20646f20746869732100000000000000000081525060200191505060405180910390fd5b818160018581548110611aac57fe5b90600052602060002090600402016003019190611aca9291906122a1565b507f5b777187d10f86b49e4ce9058d45d423be5beaff49d95d0695397b84adbc172783838360405180848152602001806020018281038252848482818152602001925080828437600081840152601f19601f82011690508083019250505094505050505060405180910390a1505050565b600260003373ffffffffffffffffffffffffffffffffffffffff1673ffffffffffffffffffffffffffffffffffffffff16815260200190815260200160002060009054906101000a900460ff16611bfa576040517f08c379a00000000000000000000000000000000000000000000000000000000081526004018080602001828103825260178152602001807f796f757265206e6f7420612076616c696420766f74657200000000000000000081525060200191505060405180910390fd5b600360003373ffffffffffffffffffffffffffffffffffffffff1673ffffffffffffffffffffffffffffffffffffffff16815260200190815260200160002060009054906101000a900460ff1615611cba576040517f08c379a00000000000000000000000000000000000000000000000000000000081526004018080602001828103825260118152602001807f796f7520616c726561647920766f74656400000000000000000000000000000081525060200191505060405180910390fd5b600960019054906101000a900460ff1615611d3d576040517f08c379a000000000000000000000000000000000000000000000000000000000815260040180806020018281038252601b8152602001807f766f74696e6720706572696f6420616c726561647920656e646564000000000081525060200191505060405180910390fd5b6001600360003373ffffffffffffffffffffffffffffffffffffffff1673ffffffffffffffffffffffffffffffffffffffff16815260200190815260200160002060006101000a81548160ff021916908315150217905550611d9d612263565b60405180608001604052803373ffffffffffffffffffffffffffffffffffffffff1681526020018481526020018381526020016040518060200160405280600081525081525090506001819080600181540180825580915050906001820390600052602060002090600402016000909192909190915060008201518160000160006101000a81548173ffffffffffffffffffffffffffffffffffffffff021916908373ffffffffffffffffffffffffffffffffffffffff1602179055506020820151816001019080519060200190611e76929190612321565b506040820151816002019080519060200190611e93929190612321565b506060820151816003019080519060200190611eb0929190612321565b505050506008600081548092919060010191905055507ff3af86b91a9ed622437437bfad97975edd009f8f04d83638551daa7d190a2538338484604051808473ffffffffffffffffffffffffffffffffffffffff1673ffffffffffffffffffffffffffffffffffffffff1681526020018060200180602001838103835285818151815260200191508051906020019080838360005b83811015611f60578082015181840152602081019050611f45565b50505050905090810190601f168015611f8d5780820380516001836020036101000a031916815260200191505b50838103825284818151815260200191508051906020019080838360005b83811015611fc6578082015181840152602081019050611fab565b50505050905090810190601f168015611ff35780820380516001836020036101000a031916815260200191505b509550505050505060405180910390a1505050565b6120106115f5565b612082576040517f08c379a00000000000000000000000000000000000000000000000000000000081526004018080602001828103825260178152602001807f4f6e6c79204f776e65722063616e20646f20746869732100000000000000000081525060200191505060405180910390fd5b600073ffffffffffffffffffffffffffffffffffffffff168173ffffffffffffffffffffffffffffffffffffffff161415612125576040517f08c379a00000000000000000000000000000000000000000000000000000000081526004018080602001828103825260198152602001807f43616e206e6f74207472616e7366657220746f205a65726f210000000000000081525060200191505060405180910390fd5b8073ffffffffffffffffffffffffffffffffffffffff166000809054906101000a900473ffffffffffffffffffffffffffffffffffffffff1673ffffffffffffffffffffffffffffffffffffffff167f8be0079c531659141344cd1fd0a4f28419497f9722a3daafe3b4186f6b6457e060405160405180910390a3806000806101000a81548173ffffffffffffffffffffffffffffffffffffffff021916908373ffffffffffffffffffffffffffffffffffffffff16021790555050565b828054600181600116156101000203166002900490600052602060002090601f016020900481019282601f1061222457803560ff1916838001178555612252565b82800160010185558215612252579182015b82811115612251578235825591602001919060010190612236565b5b50905061225f91906123a1565b5090565b6040518060800160405280600073ffffffffffffffffffffffffffffffffffffffff1681526020016060815260200160608152602001606081525090565b828054600181600116156101000203166002900490600052602060002090601f016020900481019282601f106122e257803560ff1916838001178555612310565b82800160010185558215612310579182015b8281111561230f5782358255916020019190600101906122f4565b5b50905061231d91906123a1565b5090565b828054600181600116156101000203166002900490600052602060002090601f016020900481019282601f1061236257805160ff1916838001178555612390565b82800160010185558215612390579182015b8281111561238f578251825591602001919060010190612374565b5b50905061239d91906123a1565b5090565b6123c391905b808211156123bf5760008160009055506001016123a7565b5090565b9056fea265627a7a72315820a0739602519455fe67cd3b658e3645760fc4bd0fd5a77184bb1d1faefbc197b164736f6c63430005100032",
  "source": "pragma solidity >=0.5.0 <0.8.0;\r\n\r\ncontract BallotBox {\r\n     struct ballot {\r\n        address voter;\r\n        string A;\r\n        string B;  \r\n        string decryptValue;\r\n    }\r\n    address public currentOwner;\r\n    function isOwner() public view returns (bool) {\r\n        return msg.sender == currentOwner;\r\n    }\r\n    modifier onlyOwner() {\r\n        require(isOwner(), \"Only Owner can do this!\");\r\n        _;\r\n    }\r\n\r\n    function transferOwnership(address newOwner) public onlyOwner {\r\n        require(newOwner != address(0), \"Can not transfer to Zero!\");\r\n        emit OwnershipTransferred(currentOwner, newOwner);\r\n        currentOwner = newOwner;\r\n    }\r\n    \r\n    ballot[] private ballotList;\r\n    \r\n    event OwnershipTransferred(address indexed previousOwner, address indexed newOwner);\r\n    event encryptionSet(bytes g,bytes p,bytes x,bytes y);\r\n    event AllowedVoterAdded(address voter);\r\n    event BallotAdded(address voter,string A,string B);\r\n    event valueDecrypted(uint index,string value );\r\n\r\n    mapping(address=>bool) public votersList;\r\n    mapping(address=>bool) public alreadyVoted;\r\n    bytes public publicKey;\r\n    bytes public privateKey=\"0\";\r\n    bytes public generator;\r\n    bytes public prime;\r\n    \r\n    int public ballotCount=0;\r\n    bool registryPeriodEnd;\r\n    bool votePeriodEnd;\r\n\r\n    function toggleRegisteryEnd() external onlyOwner {\r\n        registryPeriodEnd=!registryPeriodEnd;\r\n    }\r\n    function toggleVoteEnd() external onlyOwner {\r\n        votePeriodEnd=!votePeriodEnd;\r\n    }\r\n    constructor (bytes memory _publicKey,bytes memory _generator,bytes memory _prime) public {\r\n        require(\r\n            _publicKey.length != 0,\r\n            \"Must pass proper Public Key!\");\r\n        currentOwner = msg.sender;\r\n        emit OwnershipTransferred(address(0), currentOwner);\r\n        registryPeriodEnd=false;\r\n        votePeriodEnd=false;\r\n        publicKey=_publicKey;\r\n        generator=_generator;\r\n        prime=_prime;\r\n        \r\n    }\r\n    function getBallotByIndex(uint index) view public returns(string memory A,string memory B,address voter)  {\r\n        require(index<ballotList.length,\"Must pass valid index!\");\r\n        ballot memory b = ballotList[index];\r\n        return(b.A,b.B,b.voter);\r\n    }\r\n    function setInfo( bytes calldata  g,bytes calldata  p,bytes calldata  x,bytes calldata  y) external onlyOwner {\r\n        generator=g;\r\n        prime=p;\r\n        privateKey=x;\r\n        publicKey=y;\r\n        emit encryptionSet(g, p, x, y);\r\n    }\r\n    function getInfo()view public returns(bytes memory g ,bytes memory p,bytes memory x, bytes memory y){\r\n        return(generator,prime,privateKey,publicKey);\r\n    }\r\n    \r\n    function addVoterToVoterList(address voter) external onlyOwner {\r\n        require(votersList[voter]==false,\"voter already added\");\r\n        require(!registryPeriodEnd,\"registry period already ended\");\r\n        votersList[voter]=true;\r\n        alreadyVoted[voter]=false;\r\n        emit AllowedVoterAdded(voter);\r\n    }\r\n\r\n    function vote(string memory _A,string memory _B) public {\r\n        require(votersList[msg.sender],\"youre not a valid voter\");\r\n        require(!alreadyVoted[msg.sender],\"you already voted\");\r\n        require(!votePeriodEnd,\"voting period already ended\");\r\n        alreadyVoted[msg.sender]=true;\r\n        ballot memory balot=ballot(msg.sender,_A,_B,\"\");\r\n        ballotList.push(balot);\r\n        ballotCount++;\r\n        emit BallotAdded(msg.sender,_A,_B);\r\n\r\n    }\r\n    function Decrypt(uint _index,string calldata _value) external onlyOwner {\r\n        ballotList[_index].decryptValue=_value;\r\n        emit valueDecrypted(_index,_value);\r\n    }\r\n}",
  "sourcePath": "C:/Users/Pc/Desktop/PROJETFF/Drizzle-tutorial-with-React-Hooks-master/contracts/BallotBox.sol",
  "compiler": {
    "name": "solc",
    "version": "0.5.16+commit.9c3226ce.Emscripten.clang"
  },
  "schemaVersion": "3.4.0",
  "updatedAt": "2021-07-03T17:32:31.539Z",
  "networkType": "ethereum",
  "devdoc": {
    "methods": {}
  },
  "userdoc": {
    "methods": {}
  }
}