{
  "contractName": "BallotBox",
  "abi": [
    {
      "inputs": [
        {
          "internalType": "bytes",
          "name": "_publicKey",
          "type": "bytes"
        },
        {
          "internalType": "bytes",
          "name": "_generator",
          "type": "bytes"
        },
        {
          "internalType": "bytes",
          "name": "_prime",
          "type": "bytes"
        }
      ],
      "payable": false,
      "stateMutability": "nonpayable",
      "type": "constructor"
    },
    {
      "anonymous": false,
      "inputs": [
        {
          "indexed": false,
          "internalType": "address",
          "name": "voter",
          "type": "address"
        }
      ],
      "name": "AllowedVoterAdded",
      "type": "event"
    },
    {
      "anonymous": false,
      "inputs": [
        {
          "indexed": false,
          "internalType": "address",
          "name": "voter",
          "type": "address"
        },
        {
          "indexed": false,
          "internalType": "string",
          "name": "A",
          "type": "string"
        },
        {
          "indexed": false,
          "internalType": "string",
          "name": "B",
          "type": "string"
        }
      ],
      "name": "BallotAdded",
      "type": "event"
    },
    {
      "anonymous": false,
      "inputs": [
        {
          "indexed": true,
          "internalType": "address",
          "name": "previousOwner",
          "type": "address"
        },
        {
          "indexed": true,
          "internalType": "address",
          "name": "newOwner",
          "type": "address"
        }
      ],
      "name": "OwnershipTransferred",
      "type": "event"
    },
    {
      "anonymous": false,
      "inputs": [
        {
          "indexed": false,
          "internalType": "bytes",
          "name": "g",
          "type": "bytes"
        },
        {
          "indexed": false,
          "internalType": "bytes",
          "name": "p",
          "type": "bytes"
        },
        {
          "indexed": false,
          "internalType": "bytes",
          "name": "x",
          "type": "bytes"
        },
        {
          "indexed": false,
          "internalType": "bytes",
          "name": "y",
          "type": "bytes"
        }
      ],
      "name": "encryptionSet",
      "type": "event"
    },
    {
      "constant": true,
      "inputs": [
        {
          "internalType": "address",
          "name": "",
          "type": "address"
        }
      ],
      "name": "alreadyVoted",
      "outputs": [
        {
          "internalType": "bool",
          "name": "",
          "type": "bool"
        }
      ],
      "payable": false,
      "stateMutability": "view",
      "type": "function"
    },
    {
      "constant": true,
      "inputs": [],
      "name": "currentOwner",
      "outputs": [
        {
          "internalType": "address",
          "name": "",
          "type": "address"
        }
      ],
      "payable": false,
      "stateMutability": "view",
      "type": "function"
    },
    {
      "constant": true,
      "inputs": [],
      "name": "generator",
      "outputs": [
        {
          "internalType": "bytes",
          "name": "",
          "type": "bytes"
        }
      ],
      "payable": false,
      "stateMutability": "view",
      "type": "function"
    },
    {
      "constant": true,
      "inputs": [],
      "name": "prime",
      "outputs": [
        {
          "internalType": "bytes",
          "name": "",
          "type": "bytes"
        }
      ],
      "payable": false,
      "stateMutability": "view",
      "type": "function"
    },
    {
      "constant": true,
      "inputs": [],
      "name": "privateKey",
      "outputs": [
        {
          "internalType": "bytes",
          "name": "",
          "type": "bytes"
        }
      ],
      "payable": false,
      "stateMutability": "view",
      "type": "function"
    },
    {
      "constant": true,
      "inputs": [],
      "name": "publicKey",
      "outputs": [
        {
          "internalType": "bytes",
          "name": "",
          "type": "bytes"
        }
      ],
      "payable": false,
      "stateMutability": "view",
      "type": "function"
    },
    {
      "constant": true,
      "inputs": [
        {
          "internalType": "address",
          "name": "",
          "type": "address"
        }
      ],
      "name": "votersList",
      "outputs": [
        {
          "internalType": "bool",
          "name": "",
          "type": "bool"
        }
      ],
      "payable": false,
      "stateMutability": "view",
      "type": "function"
    },
    {
      "constant": true,
      "inputs": [],
      "name": "isOwner",
      "outputs": [
        {
          "internalType": "bool",
          "name": "",
          "type": "bool"
        }
      ],
      "payable": false,
      "stateMutability": "view",
      "type": "function"
    },
    {
      "constant": false,
      "inputs": [
        {
          "internalType": "address",
          "name": "newOwner",
          "type": "address"
        }
      ],
      "name": "transferOwnership",
      "outputs": [],
      "payable": false,
      "stateMutability": "nonpayable",
      "type": "function"
    },
    {
      "constant": true,
      "inputs": [
        {
          "internalType": "uint256",
          "name": "index",
          "type": "uint256"
        }
      ],
      "name": "getBallotByIndex",
      "outputs": [
        {
          "internalType": "string",
          "name": "",
          "type": "string"
        },
        {
          "internalType": "string",
          "name": "",
          "type": "string"
        },
        {
          "internalType": "address",
          "name": "",
          "type": "address"
        }
      ],
      "payable": false,
      "stateMutability": "view",
      "type": "function"
    },
    {
      "constant": false,
      "inputs": [
        {
          "internalType": "bytes",
          "name": "g",
          "type": "bytes"
        },
        {
          "internalType": "bytes",
          "name": "p",
          "type": "bytes"
        },
        {
          "internalType": "bytes",
          "name": "x",
          "type": "bytes"
        },
        {
          "internalType": "bytes",
          "name": "y",
          "type": "bytes"
        }
      ],
      "name": "setInfo",
      "outputs": [],
      "payable": false,
      "stateMutability": "nonpayable",
      "type": "function"
    },
    {
      "constant": true,
      "inputs": [],
      "name": "getInfo",
      "outputs": [
        {
          "internalType": "bytes",
          "name": "g",
          "type": "bytes"
        },
        {
          "internalType": "bytes",
          "name": "p",
          "type": "bytes"
        },
        {
          "internalType": "bytes",
          "name": "x",
          "type": "bytes"
        },
        {
          "internalType": "bytes",
          "name": "y",
          "type": "bytes"
        }
      ],
      "payable": false,
      "stateMutability": "view",
      "type": "function"
    },
    {
      "constant": false,
      "inputs": [
        {
          "internalType": "address",
          "name": "voter",
          "type": "address"
        }
      ],
      "name": "addVoterToVoterList",
      "outputs": [],
      "payable": false,
      "stateMutability": "nonpayable",
      "type": "function"
    },
    {
      "constant": false,
      "inputs": [
        {
          "internalType": "string",
          "name": "_A",
          "type": "string"
        },
        {
          "internalType": "string",
          "name": "_B",
          "type": "string"
        }
      ],
      "name": "vote",
      "outputs": [],
      "payable": false,
      "stateMutability": "nonpayable",
      "type": "function"
    }
  ],
  "bytecode": "0x60806040526040518060400160405280600181526020017f300000000000000000000000000000000000000000000000000000000000000081525060059080519060200190620000519291906200047f565b503480156200005f57600080fd5b50604051620025ef380380620025ef833981810160405260608110156200008557600080fd5b8101908080516040519392919084640100000000821115620000a657600080fd5b83820191506020820185811115620000bd57600080fd5b8251866001820283011164010000000082111715620000db57600080fd5b8083526020830192505050908051906020019080838360005b8381101562000111578082015181840152602081019050620000f4565b50505050905090810190601f1680156200013f5780820380516001836020036101000a031916815260200191505b50604052602001805160405193929190846401000000008211156200016357600080fd5b838201915060208201858111156200017a57600080fd5b82518660018202830111640100000000821117156200019857600080fd5b8083526020830192505050908051906020019080838360005b83811015620001ce578082015181840152602081019050620001b1565b50505050905090810190601f168015620001fc5780820380516001836020036101000a031916815260200191505b50604052602001805160405193929190846401000000008211156200022057600080fd5b838201915060208201858111156200023757600080fd5b82518660018202830111640100000000821117156200025557600080fd5b8083526020830192505050908051906020019080838360005b838110156200028b5780820151818401526020810190506200026e565b50505050905090810190601f168015620002b95780820380516001836020036101000a031916815260200191505b5060405250505060008351141562000339576040517f08c379a000000000000000000000000000000000000000000000000000000000815260040180806020018281038252601c8152602001807f4d75737420706173732070726f706572205075626c6963204b6579210000000081525060200191505060405180910390fd5b336000806101000a81548173ffffffffffffffffffffffffffffffffffffffff021916908373ffffffffffffffffffffffffffffffffffffffff1602179055506000809054906101000a900473ffffffffffffffffffffffffffffffffffffffff1673ffffffffffffffffffffffffffffffffffffffff16600073ffffffffffffffffffffffffffffffffffffffff167f8be0079c531659141344cd1fd0a4f28419497f9722a3daafe3b4186f6b6457e060405160405180910390a36000600960006101000a81548160ff0219169083151502179055506000600960016101000a81548160ff02191690831515021790555082600490805190602001906200044392919062000506565b5081600690805190602001906200045c92919062000506565b5080600790805190602001906200047592919062000506565b50505050620005b5565b828054600181600116156101000203166002900490600052602060002090601f016020900481019282601f10620004c257805160ff1916838001178555620004f3565b82800160010185558215620004f3579182015b82811115620004f2578251825591602001919060010190620004d5565b5b5090506200050291906200058d565b5090565b828054600181600116156101000203166002900490600052602060002090601f016020900481019282601f106200054957805160ff19168380011785556200057a565b828001600101855582156200057a579182015b82811115620005795782518255916020019190600101906200055c565b5b5090506200058991906200058d565b5090565b620005b291905b80821115620005ae57600081600090555060010162000594565b5090565b90565b61202a80620005c56000396000f3fe608060405234801561001057600080fd5b50600436106100ea5760003560e01c80638634ca2e1161008c578063c7ee005e11610066578063c7ee005e1461071f578063c8b3d5ac146107a2578063e8d5940d146108e8578063f2fde38b14610a3a576100ea565b80638634ca2e1461066f5780638f32d59b146106b3578063b387ef92146106d5576100ea565b806349da5a0f116100c857806349da5a0f1461031f5780635a9b0b89146103a257806363ffab31146105695780637afa1eed146105ec576100ea565b806306d2ad40146100ef5780631de312141461014b578063443019fe146102c3575b600080fd5b6101316004803603602081101561010557600080fd5b81019080803573ffffffffffffffffffffffffffffffffffffffff169060200190929190505050610a7e565b604051808215151515815260200191505060405180910390f35b6102c16004803603608081101561016157600080fd5b810190808035906020019064010000000081111561017e57600080fd5b82018360208201111561019057600080fd5b803590602001918460018302840111640100000000831117156101b257600080fd5b9091929391929390803590602001906401000000008111156101d357600080fd5b8201836020820111156101e557600080fd5b8035906020019184600183028401116401000000008311171561020757600080fd5b90919293919293908035906020019064010000000081111561022857600080fd5b82018360208201111561023a57600080fd5b8035906020019184600183028401116401000000008311171561025c57600080fd5b90919293919293908035906020019064010000000081111561027d57600080fd5b82018360208201111561028f57600080fd5b803590602001918460018302840111640100000000831117156102b157600080fd5b9091929391929390505050610a9e565b005b610305600480360360208110156102d957600080fd5b81019080803573ffffffffffffffffffffffffffffffffffffffff169060200190929190505050610c69565b604051808215151515815260200191505060405180910390f35b610327610c89565b6040518080602001828103825283818151815260200191508051906020019080838360005b8381101561036757808201518184015260208101905061034c565b50505050905090810190601f1680156103945780820380516001836020036101000a031916815260200191505b509250505060405180910390f35b6103aa610d27565b6040518080602001806020018060200180602001858103855289818151815260200191508051906020019080838360005b838110156103f65780820151818401526020810190506103db565b50505050905090810190601f1680156104235780820380516001836020036101000a031916815260200191505b50858103845288818151815260200191508051906020019080838360005b8381101561045c578082015181840152602081019050610441565b50505050905090810190601f1680156104895780820380516001836020036101000a031916815260200191505b50858103835287818151815260200191508051906020019080838360005b838110156104c25780820151818401526020810190506104a7565b50505050905090810190601f1680156104ef5780820380516001836020036101000a031916815260200191505b50858103825286818151815260200191508051906020019080838360005b8381101561052857808201518184015260208101905061050d565b50505050905090810190601f1680156105555780820380516001836020036101000a031916815260200191505b509850505050505050505060405180910390f35b610571610fb3565b6040518080602001828103825283818151815260200191508051906020019080838360005b838110156105b1578082015181840152602081019050610596565b50505050905090810190601f1680156105de5780820380516001836020036101000a031916815260200191505b509250505060405180910390f35b6105f4611051565b6040518080602001828103825283818151815260200191508051906020019080838360005b83811015610634578082015181840152602081019050610619565b50505050905090810190601f1680156106615780820380516001836020036101000a031916815260200191505b509250505060405180910390f35b6106b16004803603602081101561068557600080fd5b81019080803573ffffffffffffffffffffffffffffffffffffffff1690602001909291905050506110ef565b005b6106bb6113d4565b604051808215151515815260200191505060405180910390f35b6106dd61142b565b604051808273ffffffffffffffffffffffffffffffffffffffff1673ffffffffffffffffffffffffffffffffffffffff16815260200191505060405180910390f35b610727611450565b6040518080602001828103825283818151815260200191508051906020019080838360005b8381101561076757808201518184015260208101905061074c565b50505050905090810190601f1680156107945780820380516001836020036101000a031916815260200191505b509250505060405180910390f35b6107ce600480360360208110156107b857600080fd5b81019080803590602001909291905050506114ee565b6040518080602001806020018473ffffffffffffffffffffffffffffffffffffffff1673ffffffffffffffffffffffffffffffffffffffff168152602001838103835286818151815260200191508051906020019080838360005b83811015610844578082015181840152602081019050610829565b50505050905090810190601f1680156108715780820380516001836020036101000a031916815260200191505b50838103825285818151815260200191508051906020019080838360005b838110156108aa57808201518184015260208101905061088f565b50505050905090810190601f1680156108d75780820380516001836020036101000a031916815260200191505b509550505050505060405180910390f35b610a38600480360360408110156108fe57600080fd5b810190808035906020019064010000000081111561091b57600080fd5b82018360208201111561092d57600080fd5b8035906020019184600183028401116401000000008311171561094f57600080fd5b91908080601f016020809104026020016040519081016040528093929190818152602001838380828437600081840152601f19601f820116905080830192505050505050509192919290803590602001906401000000008111156109b257600080fd5b8201836020820111156109c457600080fd5b803590602001918460018302840111640100000000831117156109e657600080fd5b91908080601f016020809104026020016040519081016040528093929190818152602001838380828437600081840152601f19601f8201169050808301925050505050505091929192905050506117fc565b005b610a7c60048036036020811015610a5057600080fd5b81019080803573ffffffffffffffffffffffffffffffffffffffff169060200190929190505050611cb7565b005b60036020528060005260406000206000915054906101000a900460ff1681565b610aa66113d4565b610b18576040517f08c379a00000000000000000000000000000000000000000000000000000000081526004018080602001828103825260178152602001807f4f6e6c79204f776e65722063616e20646f20746869732100000000000000000081525060200191505060405180910390fd5b878760069190610b29929190611e92565b50858560079190610b3b929190611e92565b50838360059190610b4d929190611e92565b50818160049190610b5f929190611e92565b507fec023754730663bc04dfc5ad1dccd1b07d792bd057607e2fb39211bcbb0ed4288888888888888888604051808060200180602001806020018060200185810385528d8d82818152602001925080828437600081840152601f19601f82011690508083019250505085810384528b8b82818152602001925080828437600081840152601f19601f8201169050808301925050508581038352898982818152602001925080828437600081840152601f19601f8201169050808301925050508581038252878782818152602001925080828437600081840152601f19601f8201169050808301925050509c5050505050505050505050505060405180910390a15050505050505050565b60026020528060005260406000206000915054906101000a900460ff1681565b60058054600181600116156101000203166002900480601f016020809104026020016040519081016040528092919081815260200182805460018160011615610100020316600290048015610d1f5780601f10610cf457610100808354040283529160200191610d1f565b820191906000526020600020905b815481529060010190602001808311610d0257829003601f168201915b505050505081565b6060806060806006600760056004838054600181600116156101000203166002900480601f016020809104026020016040519081016040528092919081815260200182805460018160011615610100020316600290048015610dca5780601f10610d9f57610100808354040283529160200191610dca565b820191906000526020600020905b815481529060010190602001808311610dad57829003601f168201915b50505050509350828054600181600116156101000203166002900480601f016020809104026020016040519081016040528092919081815260200182805460018160011615610100020316600290048015610e665780601f10610e3b57610100808354040283529160200191610e66565b820191906000526020600020905b815481529060010190602001808311610e4957829003601f168201915b50505050509250818054600181600116156101000203166002900480601f016020809104026020016040519081016040528092919081815260200182805460018160011615610100020316600290048015610f025780601f10610ed757610100808354040283529160200191610f02565b820191906000526020600020905b815481529060010190602001808311610ee557829003601f168201915b50505050509150808054600181600116156101000203166002900480601f016020809104026020016040519081016040528092919081815260200182805460018160011615610100020316600290048015610f9e5780601f10610f7357610100808354040283529160200191610f9e565b820191906000526020600020905b815481529060010190602001808311610f8157829003601f168201915b50505050509050935093509350935090919293565b60048054600181600116156101000203166002900480601f0160208091040260200160405190810160405280929190818152602001828054600181600116156101000203166002900480156110495780601f1061101e57610100808354040283529160200191611049565b820191906000526020600020905b81548152906001019060200180831161102c57829003601f168201915b505050505081565b60068054600181600116156101000203166002900480601f0160208091040260200160405190810160405280929190818152602001828054600181600116156101000203166002900480156110e75780601f106110bc576101008083540402835291602001916110e7565b820191906000526020600020905b8154815290600101906020018083116110ca57829003601f168201915b505050505081565b6110f76113d4565b611169576040517f08c379a00000000000000000000000000000000000000000000000000000000081526004018080602001828103825260178152602001807f4f6e6c79204f776e65722063616e20646f20746869732100000000000000000081525060200191505060405180910390fd5b60001515600260008373ffffffffffffffffffffffffffffffffffffffff1673ffffffffffffffffffffffffffffffffffffffff16815260200190815260200160002060009054906101000a900460ff1615151461122f576040517f08c379a00000000000000000000000000000000000000000000000000000000081526004018080602001828103825260138152602001807f766f74657220616c72656164792061646465640000000000000000000000000081525060200191505060405180910390fd5b600960009054906101000a900460ff16156112b2576040517f08c379a000000000000000000000000000000000000000000000000000000000815260040180806020018281038252601d8152602001807f726567697374727920706572696f6420616c726561647920656e64656400000081525060200191505060405180910390fd5b6001600260008373ffffffffffffffffffffffffffffffffffffffff1673ffffffffffffffffffffffffffffffffffffffff16815260200190815260200160002060006101000a81548160ff0219169083151502179055506001600854016008819055506000600360008373ffffffffffffffffffffffffffffffffffffffff1673ffffffffffffffffffffffffffffffffffffffff16815260200190815260200160002060006101000a81548160ff0219169083151502179055507f46c06e25e47f79bbb4bc88c99e0c45369844d4a6bc8d28009bbe448eb0270ace81604051808273ffffffffffffffffffffffffffffffffffffffff1673ffffffffffffffffffffffffffffffffffffffff16815260200191505060405180910390a150565b60008060009054906101000a900473ffffffffffffffffffffffffffffffffffffffff1673ffffffffffffffffffffffffffffffffffffffff163373ffffffffffffffffffffffffffffffffffffffff1614905090565b6000809054906101000a900473ffffffffffffffffffffffffffffffffffffffff1681565b60078054600181600116156101000203166002900480601f0160208091040260200160405190810160405280929190818152602001828054600181600116156101000203166002900480156114e65780601f106114bb576101008083540402835291602001916114e6565b820191906000526020600020905b8154815290600101906020018083116114c957829003601f168201915b505050505081565b6060806000600180549050841061156d576040517f08c379a00000000000000000000000000000000000000000000000000000000081526004018080602001828103825260168152602001807f4d75737420706173732076616c696420696e646578210000000000000000000081525060200191505060405180910390fd5b611575611f12565b6001858154811061158257fe5b90600052602060002090600402016040518060800160405290816000820160009054906101000a900473ffffffffffffffffffffffffffffffffffffffff1673ffffffffffffffffffffffffffffffffffffffff1673ffffffffffffffffffffffffffffffffffffffff168152602001600182018054600181600116156101000203166002900480601f01602080910402602001604051908101604052809291908181526020018280546001816001161561010002031660029004801561168a5780601f1061165f5761010080835404028352916020019161168a565b820191906000526020600020905b81548152906001019060200180831161166d57829003601f168201915b50505050508152602001600282018054600181600116156101000203166002900480601f01602080910402602001604051908101604052809291908181526020018280546001816001161561010002031660029004801561172c5780601f106117015761010080835404028352916020019161172c565b820191906000526020600020905b81548152906001019060200180831161170f57829003601f168201915b50505050508152602001600382018054600181600116156101000203166002900480601f0160208091040260200160405190810160405280929190818152602001828054600181600116156101000203166002900480156117ce5780601f106117a3576101008083540402835291602001916117ce565b820191906000526020600020905b8154815290600101906020018083116117b157829003601f168201915b5050505050815250509050806020015181604001518260000151829250819150935093509350509193909250565b600260003373ffffffffffffffffffffffffffffffffffffffff1673ffffffffffffffffffffffffffffffffffffffff16815260200190815260200160002060009054906101000a900460ff166118bb576040517f08c379a00000000000000000000000000000000000000000000000000000000081526004018080602001828103825260178152602001807f796f757265206e6f7420612076616c696420766f74657200000000000000000081525060200191505060405180910390fd5b600360003373ffffffffffffffffffffffffffffffffffffffff1673ffffffffffffffffffffffffffffffffffffffff16815260200190815260200160002060009054906101000a900460ff161561197b576040517f08c379a00000000000000000000000000000000000000000000000000000000081526004018080602001828103825260118152602001807f796f7520616c726561647920766f74656400000000000000000000000000000081525060200191505060405180910390fd5b600960019054906101000a900460ff16156119fe576040517f08c379a000000000000000000000000000000000000000000000000000000000815260040180806020018281038252601b8152602001807f766f74696e6720706572696f6420616c726561647920656e646564000000000081525060200191505060405180910390fd5b6001600360003373ffffffffffffffffffffffffffffffffffffffff1673ffffffffffffffffffffffffffffffffffffffff16815260200190815260200160002060006101000a81548160ff021916908315150217905550611a5e611f12565b60405180608001604052803373ffffffffffffffffffffffffffffffffffffffff1681526020018481526020018381526020016040518060200160405280600081525081525090506001819080600181540180825580915050906001820390600052602060002090600402016000909192909190915060008201518160000160006101000a81548173ffffffffffffffffffffffffffffffffffffffff021916908373ffffffffffffffffffffffffffffffffffffffff1602179055506020820151816001019080519060200190611b37929190611f50565b506040820151816002019080519060200190611b54929190611f50565b506060820151816003019080519060200190611b71929190611f50565b505050507ff3af86b91a9ed622437437bfad97975edd009f8f04d83638551daa7d190a2538338484604051808473ffffffffffffffffffffffffffffffffffffffff1673ffffffffffffffffffffffffffffffffffffffff1681526020018060200180602001838103835285818151815260200191508051906020019080838360005b83811015611c0f578082015181840152602081019050611bf4565b50505050905090810190601f168015611c3c5780820380516001836020036101000a031916815260200191505b50838103825284818151815260200191508051906020019080838360005b83811015611c75578082015181840152602081019050611c5a565b50505050905090810190601f168015611ca25780820380516001836020036101000a031916815260200191505b509550505050505060405180910390a1505050565b611cbf6113d4565b611d31576040517f08c379a00000000000000000000000000000000000000000000000000000000081526004018080602001828103825260178152602001807f4f6e6c79204f776e65722063616e20646f20746869732100000000000000000081525060200191505060405180910390fd5b600073ffffffffffffffffffffffffffffffffffffffff168173ffffffffffffffffffffffffffffffffffffffff161415611dd4576040517f08c379a00000000000000000000000000000000000000000000000000000000081526004018080602001828103825260198152602001807f43616e206e6f74207472616e7366657220746f205a65726f210000000000000081525060200191505060405180910390fd5b8073ffffffffffffffffffffffffffffffffffffffff166000809054906101000a900473ffffffffffffffffffffffffffffffffffffffff1673ffffffffffffffffffffffffffffffffffffffff167f8be0079c531659141344cd1fd0a4f28419497f9722a3daafe3b4186f6b6457e060405160405180910390a3806000806101000a81548173ffffffffffffffffffffffffffffffffffffffff021916908373ffffffffffffffffffffffffffffffffffffffff16021790555050565b828054600181600116156101000203166002900490600052602060002090601f016020900481019282601f10611ed357803560ff1916838001178555611f01565b82800160010185558215611f01579182015b82811115611f00578235825591602001919060010190611ee5565b5b509050611f0e9190611fd0565b5090565b6040518060800160405280600073ffffffffffffffffffffffffffffffffffffffff1681526020016060815260200160608152602001606081525090565b828054600181600116156101000203166002900490600052602060002090601f016020900481019282601f10611f9157805160ff1916838001178555611fbf565b82800160010185558215611fbf579182015b82811115611fbe578251825591602001919060010190611fa3565b5b509050611fcc9190611fd0565b5090565b611ff291905b80821115611fee576000816000905550600101611fd6565b5090565b9056fea265627a7a7231582053faad88a7352142fc7f0506e5b5d87aa7f741bad737cab5736f128107e98cc564736f6c63430005100032",
  "source": "pragma solidity >=0.5.0 <0.8.0;\r\n\r\ncontract BallotBox {\r\n     struct ballot {\r\n        address voter;\r\n        string A;\r\n        string B;  \r\n        string decrypt;\r\n    }\r\n    address public currentOwner;\r\n    function isOwner() public view returns (bool) {\r\n        return msg.sender == currentOwner;\r\n    }\r\n    modifier onlyOwner() {\r\n        require(isOwner(), \"Only Owner can do this!\");\r\n        _;\r\n    }\r\n\r\n    function transferOwnership(address newOwner) public onlyOwner {\r\n        require(newOwner != address(0), \"Can not transfer to Zero!\");\r\n        emit OwnershipTransferred(currentOwner, newOwner);\r\n        currentOwner = newOwner;\r\n    }\r\n    \r\n    ballot[] private ballotList;\r\n    \r\n    event OwnershipTransferred(address indexed previousOwner, address indexed newOwner);\r\n    event encryptionSet(bytes g,bytes p,bytes x,bytes y);\r\n    event AllowedVoterAdded(address voter);\r\n    event BallotAdded(address voter,string A,string B);\r\n\r\n    mapping(address=>bool) public votersList;\r\n    mapping(address=>bool) public alreadyVoted;\r\n    bytes public publicKey;\r\n    bytes public privateKey=\"0\";\r\n    bytes public generator;\r\n    bytes public prime;\r\n    \r\n    int smthn;\r\n    bool registryPeriodEnd;\r\n    bool votePeriodEnd;\r\n    \r\n    constructor (bytes memory _publicKey,bytes memory _generator,bytes memory _prime) public {\r\n        require(\r\n            _publicKey.length != 0,\r\n            \"Must pass proper Public Key!\");\r\n        currentOwner = msg.sender;\r\n        emit OwnershipTransferred(address(0), currentOwner);\r\n        registryPeriodEnd=false;\r\n        votePeriodEnd=false;\r\n        publicKey=_publicKey;\r\n        generator=_generator;\r\n        prime=_prime;\r\n        \r\n    }\r\n    function getBallotByIndex(uint index) view public returns(string memory,string memory,address)  {\r\n        require(index<ballotList.length,\"Must pass valid index!\");\r\n        ballot memory b = ballotList[index];\r\n        return(b.A,b.B,b.voter);\r\n    }\r\n    function setInfo( bytes calldata  g,bytes calldata  p,bytes calldata  x,bytes calldata  y) external onlyOwner {\r\n        generator=g;\r\n        prime=p;\r\n        privateKey=x;\r\n        publicKey=y;\r\n        emit encryptionSet(g, p, x, y);\r\n    }\r\n    function getInfo()view public returns(bytes memory g ,bytes memory p,bytes memory x, bytes memory y){\r\n        return(generator,prime,privateKey,publicKey);\r\n    }\r\n    \r\n    function addVoterToVoterList(address voter) external onlyOwner {\r\n        require(votersList[voter]==false,\"voter already added\");\r\n        require(!registryPeriodEnd,\"registry period already ended\");\r\n        votersList[voter]=true;\r\n        smthn=smthn+1;\r\n        alreadyVoted[voter]=false;\r\n        emit AllowedVoterAdded(voter);\r\n    }\r\n\r\n    function vote(string memory _A,string memory _B) public {\r\n        require(votersList[msg.sender],\"youre not a valid voter\");\r\n        require(!alreadyVoted[msg.sender],\"you already voted\");\r\n        require(!votePeriodEnd,\"voting period already ended\");\r\n        alreadyVoted[msg.sender]=true;\r\n        ballot memory balot=ballot(msg.sender,_A,_B,\"\");\r\n        ballotList.push(balot);\r\n        emit BallotAdded(msg.sender,_A,_B);\r\n\r\n    }\r\n   \r\n}",
  "sourcePath": "C:/Users/Pc/Desktop/PROJETFF/Drizzle-tutorial-with-React-Hooks-master/contracts/BallotBox.sol",
  "compiler": {
    "name": "solc",
    "version": "0.5.16+commit.9c3226ce.Emscripten.clang"
  },
  "schemaVersion": "3.4.0",
  "updatedAt": "2021-06-08T08:37:29.498Z",
  "networkType": "ethereum",
  "devdoc": {
    "methods": {}
  },
  "userdoc": {
    "methods": {}
  }
}